{"abi":[{"type":"constructor","inputs":[{"name":"entryPoint_","type":"address","internalType":"contract IEntryPoint"}],"stateMutability":"nonpayable"},{"type":"receive","stateMutability":"payable"},{"type":"function","name":"addDeposit","inputs":[],"outputs":[],"stateMutability":"payable"},{"type":"function","name":"eip712Domain","inputs":[],"outputs":[{"name":"fields","type":"bytes1","internalType":"bytes1"},{"name":"name","type":"string","internalType":"string"},{"name":"version","type":"string","internalType":"string"},{"name":"chainId","type":"uint256","internalType":"uint256"},{"name":"verifyingContract","type":"address","internalType":"address"},{"name":"salt","type":"bytes32","internalType":"bytes32"},{"name":"extensions","type":"uint256[]","internalType":"uint256[]"}],"stateMutability":"view"},{"type":"function","name":"entryPoint","inputs":[],"outputs":[{"name":"","type":"address","internalType":"contract IEntryPoint"}],"stateMutability":"view"},{"type":"function","name":"execute","inputs":[{"name":"dest","type":"address","internalType":"address"},{"name":"value","type":"uint256","internalType":"uint256"},{"name":"func","type":"bytes","internalType":"bytes"}],"outputs":[],"stateMutability":"nonpayable"},{"type":"function","name":"executeBatch","inputs":[{"name":"dest","type":"address[]","internalType":"address[]"},{"name":"func","type":"bytes[]","internalType":"bytes[]"}],"outputs":[],"stateMutability":"nonpayable"},{"type":"function","name":"executeBatch","inputs":[{"name":"dest","type":"address[]","internalType":"address[]"},{"name":"value","type":"uint256[]","internalType":"uint256[]"},{"name":"func","type":"bytes[]","internalType":"bytes[]"}],"outputs":[],"stateMutability":"nonpayable"},{"type":"function","name":"getDeposit","inputs":[],"outputs":[{"name":"","type":"uint256","internalType":"uint256"}],"stateMutability":"view"},{"type":"function","name":"getMessageHash","inputs":[{"name":"message","type":"bytes","internalType":"bytes"}],"outputs":[{"name":"","type":"bytes32","internalType":"bytes32"}],"stateMutability":"view"},{"type":"function","name":"getNonce","inputs":[],"outputs":[{"name":"","type":"uint256","internalType":"uint256"}],"stateMutability":"view"},{"type":"function","name":"initialize","inputs":[{"name":"owner_","type":"address","internalType":"address"}],"outputs":[],"stateMutability":"nonpayable"},{"type":"function","name":"isValidSignature","inputs":[{"name":"hash","type":"bytes32","internalType":"bytes32"},{"name":"signature","type":"bytes","internalType":"bytes"}],"outputs":[{"name":"","type":"bytes4","internalType":"bytes4"}],"stateMutability":"view"},{"type":"function","name":"onERC1155BatchReceived","inputs":[{"name":"","type":"address","internalType":"address"},{"name":"","type":"address","internalType":"address"},{"name":"","type":"uint256[]","internalType":"uint256[]"},{"name":"","type":"uint256[]","internalType":"uint256[]"},{"name":"","type":"bytes","internalType":"bytes"}],"outputs":[{"name":"","type":"bytes4","internalType":"bytes4"}],"stateMutability":"pure"},{"type":"function","name":"onERC1155Received","inputs":[{"name":"","type":"address","internalType":"address"},{"name":"","type":"address","internalType":"address"},{"name":"","type":"uint256","internalType":"uint256"},{"name":"","type":"uint256","internalType":"uint256"},{"name":"","type":"bytes","internalType":"bytes"}],"outputs":[{"name":"","type":"bytes4","internalType":"bytes4"}],"stateMutability":"pure"},{"type":"function","name":"onERC721Received","inputs":[{"name":"","type":"address","internalType":"address"},{"name":"","type":"address","internalType":"address"},{"name":"","type":"uint256","internalType":"uint256"},{"name":"","type":"bytes","internalType":"bytes"}],"outputs":[{"name":"","type":"bytes4","internalType":"bytes4"}],"stateMutability":"pure"},{"type":"function","name":"owner","inputs":[],"outputs":[{"name":"","type":"address","internalType":"address"}],"stateMutability":"view"},{"type":"function","name":"performCreate","inputs":[{"name":"value","type":"uint256","internalType":"uint256"},{"name":"initCode","type":"bytes","internalType":"bytes"}],"outputs":[{"name":"createdAddr","type":"address","internalType":"address"}],"stateMutability":"payable"},{"type":"function","name":"performCreate2","inputs":[{"name":"value","type":"uint256","internalType":"uint256"},{"name":"initCode","type":"bytes","internalType":"bytes"},{"name":"salt","type":"bytes32","internalType":"bytes32"}],"outputs":[{"name":"createdAddr","type":"address","internalType":"address"}],"stateMutability":"payable"},{"type":"function","name":"proxiableUUID","inputs":[],"outputs":[{"name":"","type":"bytes32","internalType":"bytes32"}],"stateMutability":"view"},{"type":"function","name":"supportsInterface","inputs":[{"name":"interfaceId","type":"bytes4","internalType":"bytes4"}],"outputs":[{"name":"","type":"bool","internalType":"bool"}],"stateMutability":"view"},{"type":"function","name":"transferOwnership","inputs":[{"name":"newOwner","type":"address","internalType":"address"}],"outputs":[],"stateMutability":"nonpayable"},{"type":"function","name":"upgradeToAndCall","inputs":[{"name":"newImplementation","type":"address","internalType":"address"},{"name":"data","type":"bytes","internalType":"bytes"}],"outputs":[],"stateMutability":"payable"},{"type":"function","name":"validateUserOp","inputs":[{"name":"userOp","type":"tuple","internalType":"struct PackedUserOperation","components":[{"name":"sender","type":"address","internalType":"address"},{"name":"nonce","type":"uint256","internalType":"uint256"},{"name":"initCode","type":"bytes","internalType":"bytes"},{"name":"callData","type":"bytes","internalType":"bytes"},{"name":"accountGasLimits","type":"bytes32","internalType":"bytes32"},{"name":"preVerificationGas","type":"uint256","internalType":"uint256"},{"name":"gasFees","type":"bytes32","internalType":"bytes32"},{"name":"paymasterAndData","type":"bytes","internalType":"bytes"},{"name":"signature","type":"bytes","internalType":"bytes"}]},{"name":"userOpHash","type":"bytes32","internalType":"bytes32"},{"name":"missingAccountFunds","type":"uint256","internalType":"uint256"}],"outputs":[{"name":"validationData","type":"uint256","internalType":"uint256"}],"stateMutability":"nonpayable"},{"type":"function","name":"withdrawDepositTo","inputs":[{"name":"withdrawAddress","type":"address","internalType":"address payable"},{"name":"amount","type":"uint256","internalType":"uint256"}],"outputs":[],"stateMutability":"nonpayable"},{"type":"event","name":"Initialized","inputs":[{"name":"version","type":"uint64","indexed":false,"internalType":"uint64"}],"anonymous":false},{"type":"event","name":"LightAccountInitialized","inputs":[{"name":"entryPoint","type":"address","indexed":true,"internalType":"contract IEntryPoint"},{"name":"owner","type":"address","indexed":true,"internalType":"address"}],"anonymous":false},{"type":"event","name":"OwnershipTransferred","inputs":[{"name":"previousOwner","type":"address","indexed":true,"internalType":"address"},{"name":"newOwner","type":"address","indexed":true,"internalType":"address"}],"anonymous":false},{"type":"event","name":"Upgraded","inputs":[{"name":"implementation","type":"address","indexed":true,"internalType":"address"}],"anonymous":false},{"type":"error","name":"ArrayLengthMismatch","inputs":[]},{"type":"error","name":"CreateFailed","inputs":[]},{"type":"error","name":"ECDSAInvalidSignature","inputs":[]},{"type":"error","name":"ECDSAInvalidSignatureLength","inputs":[{"name":"length","type":"uint256","internalType":"uint256"}]},{"type":"error","name":"ECDSAInvalidSignatureS","inputs":[{"name":"s","type":"bytes32","internalType":"bytes32"}]},{"type":"error","name":"InvalidInitialization","inputs":[]},{"type":"error","name":"InvalidOwner","inputs":[{"name":"owner","type":"address","internalType":"address"}]},{"type":"error","name":"InvalidSignatureType","inputs":[]},{"type":"error","name":"NotAuthorized","inputs":[{"name":"caller","type":"address","internalType":"address"}]},{"type":"error","name":"NotInitializing","inputs":[]},{"type":"error","name":"UnauthorizedCallContext","inputs":[]},{"type":"error","name":"UpgradeFailed","inputs":[]},{"type":"error","name":"ZeroAddressNotAllowed","inputs":[]}],"bytecode":{"object":"0x6101803462000224576001600160401b0390601f620022e438819003918201601f191683019291908484118385101762000229578160209284926040968752833981010312620002245751916001600160a01b03831683036200022457306080523060a0524660c052620000726200023f565b92600c845260a06001602086016b131a59da1d1058d8dbdd5b9d60a21b815260206200009d6200023f565b8381520196601960f91b88525190209520948060e052610100958087528551917f8b73c3c69bb8fe3d512ecc4cf759cc79239f7b179b0ffacaa9a75d522b39400f835260208301528582015246606082015230608082015220926101209384527f33e4b41198cc5b8053630ed667ea7c0c4c873f7fc8d9a478b5d7259cec0a4a006101609381855261014093845281549060ff82851c1662000213578080831603620001ce575b50505051926120849485620002608639608051858181610adc0152610b8e015260a051856117d6015260c051856117f9015260e0518561186b01525184611891015251836117b4015251828181610387015281816105390152818161071e015281816108e101528181610ce601528181610e6b015281816110fa0152611b15015251816104450152f35b6001600160401b0319909116811790915581519081527fc7f505b2f371ae2175ee4913f4499e1f2633a7b5936321eed1cdaeb6115181d290602090a138808062000144565b835163f92ee8a960e01b8152600490fd5b600080fd5b634e487b7160e01b600052604160045260246000fd5b60408051919082016001600160401b03811183821017620002295760405256fe6080604081815260049081361015610022575b505050361561002057600080fd5b005b600092833560e01c90816301ffc9a714611454575080630a1028c4146113e1578063150b7a02146113535780631626ba7e146112cc57806318dfb3c7146111d557806319822f7c1461108c57806347e1da2a14610f685780634847be6f14610ee05780634a58db1914610e295780634c8c9ea114610d9a5780634d44560d14610c805780634f1ef28614610b3557806352d1902d14610aa957806384b0196e146109775780638da5cb5b14610905578063b0d691fe14610896578063b61d27f614610817578063bc197c8114610756578063c399ec88146106a5578063c4d66de814610409578063d087d28814610308578063f23a6e61146102775763f2fde38b0361001257346102735760207ffffffffffffffffffffffffffffffffffffffffffffffffffffffffffffffffc3601126102735761015f611653565b91610168611afd565b73ffffffffffffffffffffffffffffffffffffffff809316928315801561026a575b61023b577f691ec1a18226d004c07c9f8e5c4a6ff15a7b38db267cf7e3c945aef8be5122009182549182169384861461020c5750507fffffffffffffffffffffffff000000000000000000000000000000000000000016831790557f8be0079c531659141344cd1fd0a4f28419497f9722a3daafe3b4186f6b6457e08380a380f35b908560249251917fb20f76e3000000000000000000000000000000000000000000000000000000008352820152fd5b508260249251917fb20f76e3000000000000000000000000000000000000000000000000000000008352820152fd5b5030841461018a565b8280fd5b5082346103055760a07ffffffffffffffffffffffffffffffffffffffffffffffffffffffffffffffffc360112610305576102b0611653565b506102b9611676565b506084359067ffffffffffffffff821161030557506020926102dd91369101611699565b5050517ff23a6e61000000000000000000000000000000000000000000000000000000008152f35b80fd5b5082903461040557817ffffffffffffffffffffffffffffffffffffffffffffffffffffffffffffffffc360112610405578051927f35567e1a000000000000000000000000000000000000000000000000000000008452309084015281602484015260208360448173ffffffffffffffffffffffffffffffffffffffff7f0000000000000000000000000000000000000000000000000000000000000000165afa9182156103fa57916103c0575b6020925051908152f35b90506020823d6020116103f2575b816103db602093836115a1565b810103126103ed5760209151906103b6565b600080fd5b3d91506103ce565b9051903d90823e3d90fd5b5080fd5b5090346102735760207ffffffffffffffffffffffffffffffffffffffffffffffffffffffffffffffffc36011261027357610442611653565b917f00000000000000000000000000000000000000000000000000000000000000009182549160ff83821c16159267ffffffffffffffff81168015908161069d575b6001149081610693575b15908161068a575b50610663578360017fffffffffffffffffffffffffffffffffffffffffffffffff0000000000000000831617865561062e575b5073ffffffffffffffffffffffffffffffffffffffff809516918215610600575081907f691ec1a18226d004c07c9f8e5c4a6ff15a7b38db267cf7e3c945aef8be512200827fffffffffffffffffffffffff000000000000000000000000000000000000000082541617905551947f0000000000000000000000000000000000000000000000000000000000000000167fec6a23b49d2c363d250c9dda15610e835d428207d15ddb36a6c230e37371ddf18780a3847f8be0079c531659141344cd1fd0a4f28419497f9722a3daafe3b4186f6b6457e08180a36105aa578280f35b7fc7f505b2f371ae2175ee4913f4499e1f2633a7b5936321eed1cdaeb6115181d291817fffffffffffffffffffffffffffffffffffffffffffffff00ffffffffffffffff6020935416905560018152a138808280f35b8660249251917fb20f76e3000000000000000000000000000000000000000000000000000000008352820152fd5b7fffffffffffffffffffffffffffffffffffffffffffffff0000000000000000001668010000000000000001178455386104c9565b50517ff92ee8a9000000000000000000000000000000000000000000000000000000008152fd5b90501538610496565b303b15915061048e565b859150610484565b5082903461040557817ffffffffffffffffffffffffffffffffffffffffffffffffffffffffffffffffc360112610405578051927f70a08231000000000000000000000000000000000000000000000000000000008452309084015260208360248173ffffffffffffffffffffffffffffffffffffffff7f0000000000000000000000000000000000000000000000000000000000000000165afa9182156103fa57916103c0576020925051908152f35b5082346103055760a07ffffffffffffffffffffffffffffffffffffffffffffffffffffffffffffffffc3601126103055761078f611653565b50610798611676565b5067ffffffffffffffff90604435828111610405576107ba90369086016116c7565b5050606435828111610405576107d390369086016116c7565b505060843591821161030557506020926107ef91369101611699565b5050517fbc197c81000000000000000000000000000000000000000000000000000000008152f35b5050346104055760607ffffffffffffffffffffffffffffffffffffffffffffffffffffffffffffffffc36011261040557610850611653565b6044359167ffffffffffffffff8311610892576108766108859161088f94369101611699565b61087e611afd565b369161161c565b9060243590611bb5565b80f35b8380fd5b83823461040557817ffffffffffffffffffffffffffffffffffffffffffffffffffffffffffffffffc360112610405576020905173ffffffffffffffffffffffffffffffffffffffff7f0000000000000000000000000000000000000000000000000000000000000000168152f35b83823461040557817ffffffffffffffffffffffffffffffffffffffffffffffffffffffffffffffffc3601126104055760209073ffffffffffffffffffffffffffffffffffffffff7f691ec1a18226d004c07c9f8e5c4a6ff15a7b38db267cf7e3c945aef8be51220054169051908152f35b50823461030557807ffffffffffffffffffffffffffffffffffffffffffffffffffffffffffffffffc36011261030557908051906109b482611585565b600c82526020927f4c696768744163636f756e74000000000000000000000000000000000000000084840152610a618251926109ef84611585565b600193600181527f320000000000000000000000000000000000000000000000000000000000000087820152610a548251967f0f00000000000000000000000000000000000000000000000000000000000000885260e08989015260e08801906116f8565b91868303908701526116f8565b4660608501523060808501528160a085015283810360c0850152846060519182815201946080925b828110610a965785870386f35b8351875295810195928101928401610a89565b50823461030557807ffffffffffffffffffffffffffffffffffffffffffffffffffffffffffffffffc36011261030557307f000000000000000000000000000000000000000000000000000000000000000003610b2957602082517f360894a13ba1a3210667c828492db98dca3e2076cc3735a920a3ca505d382bbc8152f35b639f03a026915052601cfd5b5090817ffffffffffffffffffffffffffffffffffffffffffffffffffffffffffffffffc36011261027357610b68611653565b9160243567ffffffffffffffff8111610c7c57610b889036908401611699565b919093307f000000000000000000000000000000000000000000000000000000000000000014610c705773ffffffffffffffffffffffffffffffffffffffff90610bd0611afd565b16926352d1902d6001527f360894a13ba1a3210667c828492db98dca3e2076cc3735a920a3ca505d382bbc90816020600183601d895afa5103610c64575090828480949388967fbc7cd75a20ee27fd9adebab32041f755214dbc6bffa90cc0225b39da2e5c2d3b8880a255610c43578380f35b8190519485378338925af415610c5b57818180808380f35b903d90823e3d90fd5b6355299b49600152601dfd5b83639f03a0268752601cfd5b8480fd5b5082903461040557807ffffffffffffffffffffffffffffffffffffffffffffffffffffffffffffffffc3601126104055782359073ffffffffffffffffffffffffffffffffffffffff80831680930361089257610cdb611afd565b8215610d72579383947f00000000000000000000000000000000000000000000000000000000000000001692833b15610c7c576044859283855196879485937f205c287800000000000000000000000000000000000000000000000000000000855284015260243560248401525af1908115610d695750610d595750f35b610d6290611542565b6103055780f35b513d84823e3d90fd5b8482517f8579befe000000000000000000000000000000000000000000000000000000008152fd5b509190827ffffffffffffffffffffffffffffffffffffffffffffffffffffffffffffffffc3601126104055760243567ffffffffffffffff811161027357610de59036908301611699565b90610dee611afd565b8185519182378235f0918215610e1e5760208373ffffffffffffffffffffffffffffffffffffffff865191168152f35b637e16b8cd9052601cfd5b50827ffffffffffffffffffffffffffffffffffffffffffffffffffffffffffffffffc360112610273578273ffffffffffffffffffffffffffffffffffffffff7f00000000000000000000000000000000000000000000000000000000000000001692833b156104055760248351809581937fb760faf9000000000000000000000000000000000000000000000000000000008352309083015234905af1908115610d695750610ed7575080f35b61088f90611542565b50919060607ffffffffffffffffffffffffffffffffffffffffffffffffffffffffffffffffc3601126104055760243567ffffffffffffffff811161027357610f2c9036908301611699565b610f34611afd565b808551928337604435918335f5918215610e1e5760208373ffffffffffffffffffffffffffffffffffffffff865191168152f35b50346102735760607ffffffffffffffffffffffffffffffffffffffffffffffffffffffffffffffffc3601126102735767ffffffffffffffff908235828111610c7c57610fb890369085016116c7565b60249491943584811161108857610fd290369084016116c7565b91909460443590811161108457610fec90369085016116c7565b939094610ff7611afd565b84831480159061107a575b611054575050865b818110611015578780f35b8061104e61102e611029600194868c611938565b611977565b61103983878b611938565b3561104861087e858a8c6119e9565b91611bb5565b0161100a565b517fa24a13a6000000000000000000000000000000000000000000000000000000008152fd5b5083831415611002565b8780fd5b8680fd5b50829034610405577ffffffffffffffffffffffffffffffffffffffffffffffffffffffffffffffffc916060833601126103055783359267ffffffffffffffff841161040557610120908436030112610305576044359273ffffffffffffffffffffffffffffffffffffffff7f000000000000000000000000000000000000000000000000000000000000000016330361117857602094611131916024359101611bd7565b9280611140575b505051908152f35b81808092337ffffffffffffffffffffffffffffffffffffffffffffffffffffffffffffffffff150611170611d12565b508380611138565b60648560208551917f08c379a0000000000000000000000000000000000000000000000000000000008352820152601c60248201527f6163636f756e743a206e6f742066726f6d20456e747279506f696e74000000006044820152fd5b503461027357807ffffffffffffffffffffffffffffffffffffffffffffffffffffffffffffffffc3601126102735767ffffffffffffffff918035838111610c7c5761122490369083016116c7565b9190936024359081116112c85761123e90369083016116c7565b9091611248611afd565b8184036112a1575090859291835b838110611261578480f35b848061127161102984888c611938565b61127f61087e8587896119e9565b9082602083519301915af11561129757600101611256565b85513d86823e3d90fd5b84517fa24a13a6000000000000000000000000000000000000000000000000000000008152fd5b8580fd5b50823461030557817ffffffffffffffffffffffffffffffffffffffffffffffffffffffffffffffffc360112610305576024359067ffffffffffffffff8211610305575061134b6020936113447fffffffff000000000000000000000000000000000000000000000000000000009336908301611699565b91356118c8565b915191168152f35b5082346103055760807ffffffffffffffffffffffffffffffffffffffffffffffffffffffffffffffffc3601126103055761138c611653565b50611395611676565b506064359067ffffffffffffffff821161030557506020926113b991369101611699565b5050517f150b7a02000000000000000000000000000000000000000000000000000000008152f35b5082346103055760207ffffffffffffffffffffffffffffffffffffffffffffffffffffffffffffffffc3601126103055782359067ffffffffffffffff82116103055736602383011215610305575061144860209382602461144d9436930135910161161c565b611756565b9051908152f35b849084346102735760207ffffffffffffffffffffffffffffffffffffffffffffffffffffffffffffffffc36011261027357357fffffffff00000000000000000000000000000000000000000000000000000000811680910361027357602092507f150b7a02000000000000000000000000000000000000000000000000000000008114908115611518575b81156114ee575b5015158152f35b7f01ffc9a700000000000000000000000000000000000000000000000000000000915014836114e7565b7f4e2312e000000000000000000000000000000000000000000000000000000000811491506114e0565b67ffffffffffffffff811161155657604052565b7f4e487b7100000000000000000000000000000000000000000000000000000000600052604160045260246000fd5b6040810190811067ffffffffffffffff82111761155657604052565b90601f7fffffffffffffffffffffffffffffffffffffffffffffffffffffffffffffffe0910116810190811067ffffffffffffffff82111761155657604052565b67ffffffffffffffff811161155657601f017fffffffffffffffffffffffffffffffffffffffffffffffffffffffffffffffe01660200190565b929192611628826115e2565b9161163660405193846115a1565b8294818452818301116103ed578281602093846000960137010152565b6004359073ffffffffffffffffffffffffffffffffffffffff821682036103ed57565b6024359073ffffffffffffffffffffffffffffffffffffffff821682036103ed57565b9181601f840112156103ed5782359167ffffffffffffffff83116103ed57602083818601950101116103ed57565b9181601f840112156103ed5782359167ffffffffffffffff83116103ed576020808501948460051b0101116103ed57565b919082519283825260005b8481106117425750507fffffffffffffffffffffffffffffffffffffffffffffffffffffffffffffffe0601f8460006020809697860101520116010190565b602081830181015184830182015201611703565b6020815191012060405160208101917f5e3baca2936049843f06038876a12f03627b5edc98025751ecf2ac75626401998352604082015260408152606081019181831067ffffffffffffffff841117611556578260405281519020917f0000000000000000000000000000000000000000000000000000000000000000917f000000000000000000000000000000000000000000000000000000000000000030147f000000000000000000000000000000000000000000000000000000000000000046141615611842575b5050671901000000000000600052601a52603a5260426018206000603a5290565b60a092507f8b73c3c69bb8fe3d512ecc4cf759cc79239f7b179b0ffacaa9a75d522b39400f82527f000000000000000000000000000000000000000000000000000000000000000060808201527f0000000000000000000000000000000000000000000000000000000000000000838201524660c082015260e030910152203880611821565b906118e76118ec93926040519060208201526020815261144881611585565b611a04565b611914577fffffffff0000000000000000000000000000000000000000000000000000000090565b7f1626ba7e0000000000000000000000000000000000000000000000000000000090565b91908110156119485760051b0190565b7f4e487b7100000000000000000000000000000000000000000000000000000000600052603260045260246000fd5b3573ffffffffffffffffffffffffffffffffffffffff811681036103ed5790565b9035907fffffffffffffffffffffffffffffffffffffffffffffffffffffffffffffffe1813603018212156103ed570180359067ffffffffffffffff82116103ed576020019181360383136103ed57565b9082101561194857611a009160051b810190611998565b9091565b9091600190818110611ad35780156119485781843560f81c80611a64575081106103ed57611a6193611a5b927fffffffffffffffffffffffffffffffffffffffffffffffffffffffffffffffff369301910161161c565b90611e39565b90565b14611a935760046040517f60cd402d000000000000000000000000000000000000000000000000000000008152fd5b8082116103ed57611a6193611acd927fffffffffffffffffffffffffffffffffffffffffffffffffffffffffffffffff369301910161161c565b90611d42565b60046040517f60cd402d000000000000000000000000000000000000000000000000000000008152fd5b73ffffffffffffffffffffffffffffffffffffffff807f0000000000000000000000000000000000000000000000000000000000000000163314159081611baa575b81611b7c575b50611b4c57565b60246040517f4a0bfec1000000000000000000000000000000000000000000000000000000008152336004820152fd5b90507f691ec1a18226d004c07c9f8e5c4a6ff15a7b38db267cf7e3c945aef8be512200541633141538611b45565b333014159150611b3f565b916000928392602083519301915af115611bcb57565b6040513d6000823e3d90fd5b610100810190611be78282611998565b9290506001809310611ad357611bfd8183611998565b15611948573560f81c80611c8e5750611c43906000947f19457468657265756d205369676e6564204d6573736167653a0a3332000000008652601c52603c852092611998565b90818411610c7c57611c809291611a5b91857fffffffffffffffffffffffffffffffffffffffffffffffffffffffffffffffff369301910161161c565b15611c89575090565b905090565b9280949314611cc15760046040517f60cd402d000000000000000000000000000000000000000000000000000000008152fd5b611cca91611998565b91908284116103ed57611d0792611acd91857fffffffffffffffffffffffffffffffffffffffffffffffffffffffffffffffff369301910161161c565b15611a615750600090565b3d15611d3d573d90611d23826115e2565b91611d3160405193846115a1565b82523d6000602084013e565b606090565b906000809173ffffffffffffffffffffffffffffffffffffffff7f691ec1a18226d004c07c9f8e5c4a6ff15a7b38db267cf7e3c945aef8be512200541690604051611df681611dca60208201947f1626ba7e00000000000000000000000000000000000000000000000000000000998a875260248401526040604484015260648301906116f8565b037fffffffffffffffffffffffffffffffffffffffffffffffffffffffffffffffe081018352826115a1565b51915afa90611e03611d12565b82611e2b575b82611e1357505090565b9091506020818051810103126103ed57602001511490565b915060208251101591611e09565b611e4f91611e4691611e8e565b90929192611eca565b73ffffffffffffffffffffffffffffffffffffffff807f691ec1a18226d004c07c9f8e5c4a6ff15a7b38db267cf7e3c945aef8be512200541691161490565b8151919060418303611ebf57611eb892506020820151906060604084015193015160001a90611fb1565b9192909190565b505060009160029190565b6004811015611f825780611edc575050565b60018103611f0e5760046040517ff645eedf000000000000000000000000000000000000000000000000000000008152fd5b60028103611f4757602482604051907ffce698f70000000000000000000000000000000000000000000000000000000082526004820152fd5b600314611f515750565b602490604051907fd78bce0c0000000000000000000000000000000000000000000000000000000082526004820152fd5b7f4e487b7100000000000000000000000000000000000000000000000000000000600052602160045260246000fd5b91907f7fffffffffffffffffffffffffffffff5d576e7357a4501ddfe92f46681b20a0841161204257926020929160ff608095604051948552168484015260408301526060820152600092839182805260015afa1561203657805173ffffffffffffffffffffffffffffffffffffffff81161561202d57918190565b50809160019190565b604051903d90823e3d90fd5b5050506000916003919056fea26469706673582212209bd927d92395d5e6eedb02cbb11a135e1276f994690514177a7997c7061cb79f64736f6c63430008170033","linkReferences":{}},"methodIdentifiers":{"addDeposit()":"4a58db19","eip712Domain()":"84b0196e","entryPoint()":"b0d691fe","execute(address,uint256,bytes)":"b61d27f6","executeBatch(address[],bytes[])":"18dfb3c7","executeBatch(address[],uint256[],bytes[])":"47e1da2a","getDeposit()":"c399ec88","getMessageHash(bytes)":"0a1028c4","getNonce()":"d087d288","initialize(address)":"c4d66de8","isValidSignature(bytes32,bytes)":"1626ba7e","onERC1155BatchReceived(address,address,uint256[],uint256[],bytes)":"bc197c81","onERC1155Received(address,address,uint256,uint256,bytes)":"f23a6e61","onERC721Received(address,address,uint256,bytes)":"150b7a02","owner()":"8da5cb5b","performCreate(uint256,bytes)":"4c8c9ea1","performCreate2(uint256,bytes,bytes32)":"4847be6f","proxiableUUID()":"52d1902d","supportsInterface(bytes4)":"01ffc9a7","transferOwnership(address)":"f2fde38b","upgradeToAndCall(address,bytes)":"4f1ef286","validateUserOp((address,uint256,bytes,bytes,bytes32,uint256,bytes32,bytes,bytes),bytes32,uint256)":"19822f7c","withdrawDepositTo(address,uint256)":"4d44560d"},"id":75}