{"abi":[{"type":"constructor","inputs":[{"name":"entryPoint_","type":"address","internalType":"contract IEntryPoint"}],"stateMutability":"nonpayable"},{"type":"receive","stateMutability":"payable"},{"type":"function","name":"addDeposit","inputs":[],"outputs":[],"stateMutability":"payable"},{"type":"function","name":"eip712Domain","inputs":[],"outputs":[{"name":"fields","type":"bytes1","internalType":"bytes1"},{"name":"name","type":"string","internalType":"string"},{"name":"version","type":"string","internalType":"string"},{"name":"chainId","type":"uint256","internalType":"uint256"},{"name":"verifyingContract","type":"address","internalType":"address"},{"name":"salt","type":"bytes32","internalType":"bytes32"},{"name":"extensions","type":"uint256[]","internalType":"uint256[]"}],"stateMutability":"view"},{"type":"function","name":"entryPoint","inputs":[],"outputs":[{"name":"","type":"address","internalType":"contract IEntryPoint"}],"stateMutability":"view"},{"type":"function","name":"execute","inputs":[{"name":"dest","type":"address","internalType":"address"},{"name":"value","type":"uint256","internalType":"uint256"},{"name":"func","type":"bytes","internalType":"bytes"}],"outputs":[],"stateMutability":"nonpayable"},{"type":"function","name":"executeBatch","inputs":[{"name":"dest","type":"address[]","internalType":"address[]"},{"name":"func","type":"bytes[]","internalType":"bytes[]"}],"outputs":[],"stateMutability":"nonpayable"},{"type":"function","name":"executeBatch","inputs":[{"name":"dest","type":"address[]","internalType":"address[]"},{"name":"value","type":"uint256[]","internalType":"uint256[]"},{"name":"func","type":"bytes[]","internalType":"bytes[]"}],"outputs":[],"stateMutability":"nonpayable"},{"type":"function","name":"getDeposit","inputs":[],"outputs":[{"name":"","type":"uint256","internalType":"uint256"}],"stateMutability":"view"},{"type":"function","name":"getMessageHash","inputs":[{"name":"message","type":"bytes","internalType":"bytes"}],"outputs":[{"name":"","type":"bytes32","internalType":"bytes32"}],"stateMutability":"view"},{"type":"function","name":"getNonce","inputs":[],"outputs":[{"name":"","type":"uint256","internalType":"uint256"}],"stateMutability":"view"},{"type":"function","name":"initialize","inputs":[{"name":"owners_","type":"address[]","internalType":"address[]"}],"outputs":[],"stateMutability":"nonpayable"},{"type":"function","name":"isValidSignature","inputs":[{"name":"hash","type":"bytes32","internalType":"bytes32"},{"name":"signature","type":"bytes","internalType":"bytes"}],"outputs":[{"name":"","type":"bytes4","internalType":"bytes4"}],"stateMutability":"view"},{"type":"function","name":"onERC1155BatchReceived","inputs":[{"name":"","type":"address","internalType":"address"},{"name":"","type":"address","internalType":"address"},{"name":"","type":"uint256[]","internalType":"uint256[]"},{"name":"","type":"uint256[]","internalType":"uint256[]"},{"name":"","type":"bytes","internalType":"bytes"}],"outputs":[{"name":"","type":"bytes4","internalType":"bytes4"}],"stateMutability":"pure"},{"type":"function","name":"onERC1155Received","inputs":[{"name":"","type":"address","internalType":"address"},{"name":"","type":"address","internalType":"address"},{"name":"","type":"uint256","internalType":"uint256"},{"name":"","type":"uint256","internalType":"uint256"},{"name":"","type":"bytes","internalType":"bytes"}],"outputs":[{"name":"","type":"bytes4","internalType":"bytes4"}],"stateMutability":"pure"},{"type":"function","name":"onERC721Received","inputs":[{"name":"","type":"address","internalType":"address"},{"name":"","type":"address","internalType":"address"},{"name":"","type":"uint256","internalType":"uint256"},{"name":"","type":"bytes","internalType":"bytes"}],"outputs":[{"name":"","type":"bytes4","internalType":"bytes4"}],"stateMutability":"pure"},{"type":"function","name":"owners","inputs":[],"outputs":[{"name":"","type":"address[]","internalType":"address[]"}],"stateMutability":"view"},{"type":"function","name":"performCreate","inputs":[{"name":"value","type":"uint256","internalType":"uint256"},{"name":"initCode","type":"bytes","internalType":"bytes"}],"outputs":[{"name":"createdAddr","type":"address","internalType":"address"}],"stateMutability":"payable"},{"type":"function","name":"performCreate2","inputs":[{"name":"value","type":"uint256","internalType":"uint256"},{"name":"initCode","type":"bytes","internalType":"bytes"},{"name":"salt","type":"bytes32","internalType":"bytes32"}],"outputs":[{"name":"createdAddr","type":"address","internalType":"address"}],"stateMutability":"payable"},{"type":"function","name":"proxiableUUID","inputs":[],"outputs":[{"name":"","type":"bytes32","internalType":"bytes32"}],"stateMutability":"view"},{"type":"function","name":"supportsInterface","inputs":[{"name":"interfaceId","type":"bytes4","internalType":"bytes4"}],"outputs":[{"name":"","type":"bool","internalType":"bool"}],"stateMutability":"view"},{"type":"function","name":"updateOwners","inputs":[{"name":"ownersToAdd","type":"address[]","internalType":"address[]"},{"name":"ownersToRemove","type":"address[]","internalType":"address[]"}],"outputs":[],"stateMutability":"nonpayable"},{"type":"function","name":"upgradeToAndCall","inputs":[{"name":"newImplementation","type":"address","internalType":"address"},{"name":"data","type":"bytes","internalType":"bytes"}],"outputs":[],"stateMutability":"payable"},{"type":"function","name":"validateUserOp","inputs":[{"name":"userOp","type":"tuple","internalType":"struct PackedUserOperation","components":[{"name":"sender","type":"address","internalType":"address"},{"name":"nonce","type":"uint256","internalType":"uint256"},{"name":"initCode","type":"bytes","internalType":"bytes"},{"name":"callData","type":"bytes","internalType":"bytes"},{"name":"accountGasLimits","type":"bytes32","internalType":"bytes32"},{"name":"preVerificationGas","type":"uint256","internalType":"uint256"},{"name":"gasFees","type":"bytes32","internalType":"bytes32"},{"name":"paymasterAndData","type":"bytes","internalType":"bytes"},{"name":"signature","type":"bytes","internalType":"bytes"}]},{"name":"userOpHash","type":"bytes32","internalType":"bytes32"},{"name":"missingAccountFunds","type":"uint256","internalType":"uint256"}],"outputs":[{"name":"validationData","type":"uint256","internalType":"uint256"}],"stateMutability":"nonpayable"},{"type":"function","name":"withdrawDepositTo","inputs":[{"name":"withdrawAddress","type":"address","internalType":"address payable"},{"name":"amount","type":"uint256","internalType":"uint256"}],"outputs":[],"stateMutability":"nonpayable"},{"type":"event","name":"Initialized","inputs":[{"name":"version","type":"uint64","indexed":false,"internalType":"uint64"}],"anonymous":false},{"type":"event","name":"LightAccountInitialized","inputs":[{"name":"entryPoint","type":"address","indexed":true,"internalType":"contract IEntryPoint"},{"name":"owners","type":"address[]","indexed":false,"internalType":"address[]"}],"anonymous":false},{"type":"event","name":"OwnersUpdated","inputs":[{"name":"addedOwners","type":"address[]","indexed":false,"internalType":"address[]"},{"name":"removedOwners","type":"address[]","indexed":false,"internalType":"address[]"}],"anonymous":false},{"type":"event","name":"Upgraded","inputs":[{"name":"implementation","type":"address","indexed":true,"internalType":"address"}],"anonymous":false},{"type":"error","name":"ArrayLengthMismatch","inputs":[]},{"type":"error","name":"CreateFailed","inputs":[]},{"type":"error","name":"ECDSAInvalidSignature","inputs":[]},{"type":"error","name":"ECDSAInvalidSignatureLength","inputs":[{"name":"length","type":"uint256","internalType":"uint256"}]},{"type":"error","name":"ECDSAInvalidSignatureS","inputs":[{"name":"s","type":"bytes32","internalType":"bytes32"}]},{"type":"error","name":"EmptyOwnersNotAllowed","inputs":[]},{"type":"error","name":"InvalidInitialization","inputs":[]},{"type":"error","name":"InvalidOwner","inputs":[{"name":"owner","type":"address","internalType":"address"}]},{"type":"error","name":"InvalidSignatureType","inputs":[]},{"type":"error","name":"NotAuthorized","inputs":[{"name":"caller","type":"address","internalType":"address"}]},{"type":"error","name":"NotInitializing","inputs":[]},{"type":"error","name":"OwnerDoesNotExist","inputs":[{"name":"owner","type":"address","internalType":"address"}]},{"type":"error","name":"UnauthorizedCallContext","inputs":[]},{"type":"error","name":"UpgradeFailed","inputs":[]},{"type":"error","name":"ZeroAddressNotAllowed","inputs":[]}],"bytecode":{"object":"0x6101803462000235576001600160401b0390601f620028a738819003918201601f19168301929190848411838510176200023a578160209284926040968752833981010312620002355751916001600160a01b03831683036200023557306080523060a0524660c0526200007262000250565b926016845260a06001602086017f4d756c74694f776e65724c696768744163636f756e740000000000000000000081526020620000ae62000250565b8381520196601960f91b88525190209520948060e052610100958087528551917f8b73c3c69bb8fe3d512ecc4cf759cc79239f7b179b0ffacaa9a75d522b39400f835260208301528582015246606082015230608082015220926101209384527faa296a366a62f6551d3ddfceae892d1791068a359a0d3461aab99dfc6c5fd7006101609381855261014093845281549060ff82851c1662000224578080831603620001df575b50505051926126369485620002718639608051858181610a5b0152610b0d015260a051856118ab015260c051856118ce015260e0518561194001525184611966015251836118890152518281816102350152818161032f015281816104f10152818161077f01528181610c6401528181610dea015281816110ec0152611bf1015251816106a60152f35b6001600160401b0319909116811790915581519081527fc7f505b2f371ae2175ee4913f4499e1f2633a7b5936321eed1cdaeb6115181d290602090a138808062000155565b835163f92ee8a960e01b8152600490fd5b600080fd5b634e487b7160e01b600052604160045260246000fd5b60408051919082016001600160401b038111838210176200023a5760405256fe6080604081815260049182361015610022575b505050361561002057600080fd5b005b600090813560e01c90816301ffc9a714611441575080630a1028c4146113cf578063150b7a02146113425780631626ba7e146112bc57806318dfb3c7146111c757806319822f7c1461107f578063395622471461100c57806347e1da2a14610ee65780634847be6f14610e5f5780634a58db1914610da65780634c8c9ea114610d185780634d44560d14610bff5780634f1ef28614610ab457806352d1902d14610a2957806384b0196e146108f8578063a224cee71461064f578063affe39c114610515578063b0d691fe146104a6578063b61d27f614610427578063bc197c8114610367578063c399ec88146102b7578063d087d288146101b75763f23a6e610361001257346101b45760a07ffffffffffffffffffffffffffffffffffffffffffffffffffffffffffffffffc3601126101b45761015f611640565b50610168611663565b506084359067ffffffffffffffff82116101b4575060209261018c913691016116a7565b5050517ff23a6e61000000000000000000000000000000000000000000000000000000008152f35b80fd5b5090346102b357817ffffffffffffffffffffffffffffffffffffffffffffffffffffffffffffffffc3601126102b3578051927f35567e1a000000000000000000000000000000000000000000000000000000008452309084015281602484015260208360448173ffffffffffffffffffffffffffffffffffffffff7f0000000000000000000000000000000000000000000000000000000000000000165afa9182156102a8579161026e575b6020925051908152f35b90506020823d6020116102a0575b816102896020938361158e565b8101031261029b576020915190610264565b600080fd5b3d915061027c565b9051903d90823e3d90fd5b5080fd5b5090346102b357817ffffffffffffffffffffffffffffffffffffffffffffffffffffffffffffffffc3601126102b3578051927f70a08231000000000000000000000000000000000000000000000000000000008452309084015260208360248173ffffffffffffffffffffffffffffffffffffffff7f0000000000000000000000000000000000000000000000000000000000000000165afa9182156102a8579161026e576020925051908152f35b50346101b45760a07ffffffffffffffffffffffffffffffffffffffffffffffffffffffffffffffffc3601126101b45761039f611640565b506103a8611663565b5067ffffffffffffffff906044358281116102b3576103ca90369086016116d5565b50506064358281116102b3576103e390369086016116d5565b50506084359182116101b457506020926103ff913691016116a7565b5050517fbc197c81000000000000000000000000000000000000000000000000000000008152f35b5082346102b35760607ffffffffffffffffffffffffffffffffffffffffffffffffffffffffffffffffc3601126102b357610460611640565b6044359167ffffffffffffffff83116104a2576104866104959161049f943691016116a7565b61048e611bda565b3691611609565b9060243590611cba565b80f35b8380fd5b5090346102b357817ffffffffffffffffffffffffffffffffffffffffffffffffffffffffffffffffc3601126102b3576020905173ffffffffffffffffffffffffffffffffffffffff7f0000000000000000000000000000000000000000000000000000000000000000168152f35b50346101b457807ffffffffffffffffffffffffffffffffffffffffffffffffffffffffffffffffc3601126101b457809160019282848094527f0eb5184329babcda7203727c83eff940fb292fc735f61720a6182b755bf7f900602090806020528483205491868651975b6105d6575b850160051b870186525050508184525b8181106105b5578251602080825281906105b1908201876117e1565b0390f35b806105c1869286612099565b5160601c6105cf8287612099565b5201610595565b909192948186161580610646575b1561063e577fffffffffffffffffffffffffffffffffffffffffffffffffffffffffffff000186169101600581901b8801829052946002161561063657835281815284832054875b8093929193610580565b50828761062c565b945080610585565b508515156105e4565b509190346108f457602090817ffffffffffffffffffffffffffffffffffffffffffffffffffffffffffffffffc3601126104a25767ffffffffffffffff83358181116108f0576106a290369086016116d5565b94907f00000000000000000000000000000000000000000000000000000000000000009586549360ff85871c161594818116908115806108e9575b600180931490816108df575b1590816108d6575b506108ae578660017fffffffffffffffffffffffffffffffffffffffffffffffff00000000000000008316178b55610879575b5073ffffffffffffffffffffffffffffffffffffffff875190848a83018b8452528882019286908d5b8c88821061085a575050505090807ff50e95bb610fe6508fd613e37c8721d1927dd968ed4e0e322193bafb288b6fe9927f000000000000000000000000000000000000000000000000000000000000000016930390a28551938785019182118583101761082c575085528783526107cf92916107ca913691611706565b611e64565b6107d7578380f35b827fffffffffffffffffffffffffffffffffffffffffffffff00ffffffffffffffff7fc7f505b2f371ae2175ee4913f4499e1f2633a7b5936321eed1cdaeb6115181d294541690555160018152a13880808380f35b6041907f4e487b71000000000000000000000000000000000000000000000000000000006000525260246000fd5b8084978661086b8697969596611686565b16815201960192910161074d565b7fffffffffffffffffffffffffffffffffffffffffffffff000000000000000000166801000000000000000117895538610724565b8588517ff92ee8a9000000000000000000000000000000000000000000000000000000008152fd5b905015386106f1565b303b1591506106e9565b50866106dd565b8580fd5b8280fd5b50346101b457807ffffffffffffffffffffffffffffffffffffffffffffffffffffffffffffffffc3601126101b4579080519061093482611572565b601682526020927f4d756c74694f776e65724c696768744163636f756e7400000000000000000000848401526109e182519261096f84611572565b600193600181527f3200000000000000000000000000000000000000000000000000000000000000878201526109d48251967f0f00000000000000000000000000000000000000000000000000000000000000885260e08989015260e0880190611783565b9186830390870152611783565b4660608501523060808501528160a085015283810360c0850152846060519182815201946080925b828110610a165785870386f35b8351875295810195928101928401610a09565b50346101b457807ffffffffffffffffffffffffffffffffffffffffffffffffffffffffffffffffc3601126101b457307f000000000000000000000000000000000000000000000000000000000000000003610aa857602082517f360894a13ba1a3210667c828492db98dca3e2076cc3735a920a3ca505d382bbc8152f35b639f03a026915052601cfd5b5091817ffffffffffffffffffffffffffffffffffffffffffffffffffffffffffffffffc3601126108f457610ae7611640565b9160243567ffffffffffffffff8111610bfb57610b0790369084016116a7565b919093307f000000000000000000000000000000000000000000000000000000000000000014610bef5773ffffffffffffffffffffffffffffffffffffffff90610b4f611bda565b16926352d1902d6001527f360894a13ba1a3210667c828492db98dca3e2076cc3735a920a3ca505d382bbc90816020600183601d895afa5103610be3575090828480949388967fbc7cd75a20ee27fd9adebab32041f755214dbc6bffa90cc0225b39da2e5c2d3b8880a255610bc2578380f35b8190519485378338925af415610bda57818180808380f35b903d90823e3d90fd5b6355299b49600152601dfd5b83639f03a0268752601cfd5b8480fd5b5090346102b357807ffffffffffffffffffffffffffffffffffffffffffffffffffffffffffffffffc3601126102b35782359073ffffffffffffffffffffffffffffffffffffffff8083168093036104a257610c59611bda565b8215610cf0579383947f00000000000000000000000000000000000000000000000000000000000000001692833b15610bfb576044859283855196879485937f205c287800000000000000000000000000000000000000000000000000000000855284015260243560248401525af1908115610ce75750610cd75750f35b610ce09061152f565b6101b45780f35b513d84823e3d90fd5b8482517f8579befe000000000000000000000000000000000000000000000000000000008152fd5b5082827ffffffffffffffffffffffffffffffffffffffffffffffffffffffffffffffffc3601126102b35760243567ffffffffffffffff81116108f457610d6290369083016116a7565b90610d6b611bda565b8185519182378235f0918215610d9b5760208373ffffffffffffffffffffffffffffffffffffffff865191168152f35b637e16b8cd9052601cfd5b509190827ffffffffffffffffffffffffffffffffffffffffffffffffffffffffffffffffc3601126108f4578273ffffffffffffffffffffffffffffffffffffffff7f00000000000000000000000000000000000000000000000000000000000000001692833b156102b35760248351809581937fb760faf9000000000000000000000000000000000000000000000000000000008352309083015234905af1908115610ce75750610e56575080f35b61049f9061152f565b508260607ffffffffffffffffffffffffffffffffffffffffffffffffffffffffffffffffc3601126102b35760243567ffffffffffffffff81116108f457610eaa90369083016116a7565b610eb2611bda565b808551928337604435918335f5918215610d9b5760208373ffffffffffffffffffffffffffffffffffffffff865191168152f35b509190346108f45760607ffffffffffffffffffffffffffffffffffffffffffffffffffffffffffffffffc3601126108f45767ffffffffffffffff908235828111610bfb57610f3890369085016116d5565b60249491943584811161100857610f5290369084016116d5565b91909460443590811161100457610f6c90369085016116d5565b939094610f77611bda565b848314801590610ffa575b610fd4575050865b818110610f95578780f35b80610fce610fae610fa9600194868c611a0d565b611a4c565b610fb983878b611a0d565b35610fc861048e858a8c611abe565b91611cba565b01610f8a565b517fa24a13a6000000000000000000000000000000000000000000000000000000008152fd5b5083831415610f82565b8780fd5b8680fd5b509190346108f4577ffffffffffffffffffffffffffffffffffffffffffffffffffffffffffffffffc3601126102b35767ffffffffffffffff81358181116104a25761105b9036908401611765565b906024359081116104a25761049f9261107691369101611765565b906107ca611bda565b5090346102b3577ffffffffffffffffffffffffffffffffffffffffffffffffffffffffffffffffc916060833601126101b45783359267ffffffffffffffff84116102b3576101209084360301126101b4576044359273ffffffffffffffffffffffffffffffffffffffff7f000000000000000000000000000000000000000000000000000000000000000016330361116a57602094611123916024359101611cdc565b9280611132575b505051908152f35b81808092337ffffffffffffffffffffffffffffffffffffffffffffffffffffffffffffffffff150611162611e34565b50388061112a565b60648560208551917f08c379a0000000000000000000000000000000000000000000000000000000008352820152601c60248201527f6163636f756e743a206e6f742066726f6d20456e747279506f696e74000000006044820152fd5b509190346108f457807ffffffffffffffffffffffffffffffffffffffffffffffffffffffffffffffffc3601126108f45767ffffffffffffffff918035838111610bfb5761121890369083016116d5565b9190936024359081116108f05761123290369083016116d5565b909161123c611bda565b818403611295575090859291835b838110611255578480f35b8480611265610fa984888c611a0d565b61127361048e858789611abe565b9082602083519301915af11561128b5760010161124a565b85513d86823e3d90fd5b84517fa24a13a6000000000000000000000000000000000000000000000000000000008152fd5b50346101b457817ffffffffffffffffffffffffffffffffffffffffffffffffffffffffffffffffc3601126101b4576024359067ffffffffffffffff82116101b4575061133a6020936113337fffffffff0000000000000000000000000000000000000000000000000000000093369083016116a7565b913561199d565b915191168152f35b50346101b45760807ffffffffffffffffffffffffffffffffffffffffffffffffffffffffffffffffc3601126101b45761137a611640565b50611383611663565b506064359067ffffffffffffffff82116101b457506020926113a7913691016116a7565b5050517f150b7a02000000000000000000000000000000000000000000000000000000008152f35b50346101b45760207ffffffffffffffffffffffffffffffffffffffffffffffffffffffffffffffffc3601126101b45782359067ffffffffffffffff82116101b457366023830112156101b4575061143560209382602461143a94369301359101611609565b61182b565b9051908152f35b905083346108f45760207ffffffffffffffffffffffffffffffffffffffffffffffffffffffffffffffffc3601126108f457357fffffffff0000000000000000000000000000000000000000000000000000000081168091036108f457602092507f150b7a02000000000000000000000000000000000000000000000000000000008114908115611505575b81156114db575b5015158152f35b7f01ffc9a700000000000000000000000000000000000000000000000000000000915014836114d4565b7f4e2312e000000000000000000000000000000000000000000000000000000000811491506114cd565b67ffffffffffffffff811161154357604052565b7f4e487b7100000000000000000000000000000000000000000000000000000000600052604160045260246000fd5b6040810190811067ffffffffffffffff82111761154357604052565b90601f7fffffffffffffffffffffffffffffffffffffffffffffffffffffffffffffffe0910116810190811067ffffffffffffffff82111761154357604052565b67ffffffffffffffff811161154357601f017fffffffffffffffffffffffffffffffffffffffffffffffffffffffffffffffe01660200190565b929192611615826115cf565b91611623604051938461158e565b82948184528183011161029b578281602093846000960137010152565b6004359073ffffffffffffffffffffffffffffffffffffffff8216820361029b57565b6024359073ffffffffffffffffffffffffffffffffffffffff8216820361029b57565b359073ffffffffffffffffffffffffffffffffffffffff8216820361029b57565b9181601f8401121561029b5782359167ffffffffffffffff831161029b576020838186019501011161029b57565b9181601f8401121561029b5782359167ffffffffffffffff831161029b576020808501948460051b01011161029b57565b90929167ffffffffffffffff8411611543578360051b60209260206040516117308285018261158e565b809781520191810192831161029b57905b82821061174e5750505050565b83809161175a84611686565b815201910190611741565b9080601f8301121561029b5781602061178093359101611706565b90565b919082519283825260005b8481106117cd5750507fffffffffffffffffffffffffffffffffffffffffffffffffffffffffffffffe0601f8460006020809697860101520116010190565b60208183018101518483018201520161178e565b90815180825260208080930193019160005b828110611801575050505090565b835173ffffffffffffffffffffffffffffffffffffffff16855293810193928101926001016117f3565b6020815191012060405160208101917f5e3baca2936049843f06038876a12f03627b5edc98025751ecf2ac75626401998352604082015260408152606081019181831067ffffffffffffffff841117611543578260405281519020917f0000000000000000000000000000000000000000000000000000000000000000917f000000000000000000000000000000000000000000000000000000000000000030147f000000000000000000000000000000000000000000000000000000000000000046141615611917575b5050671901000000000000600052601a52603a5260426018206000603a5290565b60a092507f8b73c3c69bb8fe3d512ecc4cf759cc79239f7b179b0ffacaa9a75d522b39400f82527f000000000000000000000000000000000000000000000000000000000000000060808201527f0000000000000000000000000000000000000000000000000000000000000000838201524660c082015260e0309101522038806118f6565b906119bc6119c193926040519060208201526020815261143581611572565b611ad9565b6119e9577fffffffff0000000000000000000000000000000000000000000000000000000090565b7f1626ba7e0000000000000000000000000000000000000000000000000000000090565b9190811015611a1d5760051b0190565b7f4e487b7100000000000000000000000000000000000000000000000000000000600052603260045260246000fd5b3573ffffffffffffffffffffffffffffffffffffffff8116810361029b5790565b9035907fffffffffffffffffffffffffffffffffffffffffffffffffffffffffffffffe18136030182121561029b570180359067ffffffffffffffff821161029b5760200191813603831361029b57565b90821015611a1d57611ad59160051b810190611a6d565b9091565b60018310611bb0578215611a1d57813560f81c80611b365750908260011161029b5761178092611b309160017fffffffffffffffffffffffffffffffffffffffffffffffffffffffffffffffff3693019101611609565b906121d5565b600214611b675760046040517f60cd402d000000000000000000000000000000000000000000000000000000008152fd5b8260151161029b576001611ba5611780947fffffffffffffffffffffffffffffffffffffffffffffffffffffffffffffffeb36910160158601611609565b92013560601c6120ad565b60046040517f60cd402d000000000000000000000000000000000000000000000000000000008152fd5b73ffffffffffffffffffffffffffffffffffffffff7f00000000000000000000000000000000000000000000000000000000000000001633141580611cb0575b80611c56575b611c2657565b60246040517f4a0bfec1000000000000000000000000000000000000000000000000000000008152336004820152fd5b507fffffffffffffffffffffffffffffffffffffffff0000000000000000000000003360601b166000527f0eb5184329babcda7203727c83eff940fb292fc735f61720a6182b755bf7f90060205260406000205415611c20565b5030331415611c1a565b916000928392602083519301915af115611cd057565b6040513d6000823e3d90fd5b90610100820191611ced8382611a6d565b9190506001809210611bb057611d038482611a6d565b15611a1d573560f81c9384611d9857611d4d91929394506000947f19457468657265756d205369676e6564204d6573736167653a0a3332000000008652601c52603c852092611a6d565b90818411610bfb57611d8a9291611b3091857fffffffffffffffffffffffffffffffffffffffffffffffffffffffffffffffff3693019101611609565b15611d93575090565b905090565b9193600214611dcb5760046040517f60cd402d000000000000000000000000000000000000000000000000000000008152fd5b611dd58282611a6d565b60159391931161029b57611de891611a6d565b8060159492941161029b57611ba58591611e299560157fffffffffffffffffffffffffffffffffffffffffffffffffffffffffffffffeb3693019101611609565b156117805750600090565b3d15611e5f573d90611e45826115cf565b91611e53604051938461158e565b82523d6000602084013e565b606090565b90805160005b818110612003575050815160005b818110611f6057505060016000527f0eb5184329babcda7203727c83eff940fb292fc735f61720a6182b755bf7f9006020527f1445284df7409ed5045e9f7688c316df8d5d6c95beabd39b38867477fc5658c8548015908115611f55575b50611f2b577f9e21fe49fba3f7d0d12e8f5eef3747a76c62e19def530ce9764932707e1f12dd91611f26611f18926040519384936040855260408501906117e1565b9083820360208501526117e1565b0390a1565b60046040517f9aa6ffc3000000000000000000000000000000000000000000000000000000008152fd5b600191501638611ed6565b611f6a8185612099565b5173ffffffffffffffffffffffffffffffffffffffff811690308214908115611fcd575b50611f9c5750600101611e78565b602490604051907fb20f76e30000000000000000000000000000000000000000000000000000000082526004820152fd5b611ffc915060601b7fffffffffffffffffffffffffffffffffffffffff00000000000000000000000016612358565b1538611f8e565b61203b7fffffffffffffffffffffffffffffffffffffffff0000000000000000000000006120318386612099565b5160601b16612242565b1561204857600101611e6a565b73ffffffffffffffffffffffffffffffffffffffff61206960249285612099565b5116604051907f531e21ce0000000000000000000000000000000000000000000000000000000082526004820152fd5b8051821015611a1d5760209160051b010190565b919091604051612126816120fa60208201957f1626ba7e00000000000000000000000000000000000000000000000000000000978888526024840152604060448401526064830190611783565b037fffffffffffffffffffffffffffffffffffffffffffffffffffffffffffffffe0810183528261158e565b6000809381925190845afa9261213a611e34565b846121c7575b846121a9575b50508261215257505090565b604092507fffffffffffffffffffffffffffffffffffffffff0000000000000000000000009060601b1681527f0eb5184329babcda7203727c83eff940fb292fc735f61720a6182b755bf7f9006020522054151590565b909193506020818051810103126108f4576020015114913880612146565b935060208451101593612140565b6122037fffffffffffffffffffffffffffffffffffffffff0000000000000000000000009261220c92612440565b9092919261247c565b60601b166000527f0eb5184329babcda7203727c83eff940fb292fc735f61720a6182b755bf7f900602052604060002054151590565b7fffffffffffffffffffffffffffffffffffffffffffffffffffffffffffff0000169060008281527f0eb5184329babcda7203727c83eff940fb292fc735f61720a6182b755bf7f90060208160205260409160408420549186158015612350575b6123475760018560015b1561231b575b508552818152838520805486917fffffffffffffffffffffffffffffffffffffffffffffffffffffffffffff000180831691908b83146122f5575050916122ad565b871661fffc93909316929092176002909616959095179055505050825281205560019150565b6001811615908161233d575b501561233357386122b3565b5093955050505050565b9050151538612327565b50929450505050565b5082156122a3565b7fffffffffffffffffffffffffffffffffffffffffffffffffffffffffffff0000168015801561240a575b61240457600090600182527f0eb5184329babcda7203727c83eff940fb292fc735f61720a6182b755bf7f9008060205260408320805490811580156123fa575b156123e557505091604091600193848352602052808383205581522055600190565b60028417905591835250604090912055600190565b50600182166123c3565b50600090565b50806000527f0eb5184329babcda7203727c83eff940fb292fc735f61720a6182b755bf7f9006020526040600020541515612383565b81519190604183036124715761246a92506020820151906060604084015193015160001a90612563565b9192909190565b505060009160029190565b6004811015612534578061248e575050565b600181036124c05760046040517ff645eedf000000000000000000000000000000000000000000000000000000008152fd5b600281036124f957602482604051907ffce698f70000000000000000000000000000000000000000000000000000000082526004820152fd5b6003146125035750565b602490604051907fd78bce0c0000000000000000000000000000000000000000000000000000000082526004820152fd5b7f4e487b7100000000000000000000000000000000000000000000000000000000600052602160045260246000fd5b91907f7fffffffffffffffffffffffffffffff5d576e7357a4501ddfe92f46681b20a084116125f457926020929160ff608095604051948552168484015260408301526060820152600092839182805260015afa156125e857805173ffffffffffffffffffffffffffffffffffffffff8116156125df57918190565b50809160019190565b604051903d90823e3d90fd5b5050506000916003919056fea2646970667358221220a9d5db1c46fa9f0431958267a57899951cc21abbe79527cc8f5c21a6605f6fdc64736f6c63430008170033","linkReferences":{}},"methodIdentifiers":{"addDeposit()":"4a58db19","eip712Domain()":"84b0196e","entryPoint()":"b0d691fe","execute(address,uint256,bytes)":"b61d27f6","executeBatch(address[],bytes[])":"18dfb3c7","executeBatch(address[],uint256[],bytes[])":"47e1da2a","getDeposit()":"c399ec88","getMessageHash(bytes)":"0a1028c4","getNonce()":"d087d288","initialize(address[])":"a224cee7","isValidSignature(bytes32,bytes)":"1626ba7e","onERC1155BatchReceived(address,address,uint256[],uint256[],bytes)":"bc197c81","onERC1155Received(address,address,uint256,uint256,bytes)":"f23a6e61","onERC721Received(address,address,uint256,bytes)":"150b7a02","owners()":"affe39c1","performCreate(uint256,bytes)":"4c8c9ea1","performCreate2(uint256,bytes,bytes32)":"4847be6f","proxiableUUID()":"52d1902d","supportsInterface(bytes4)":"01ffc9a7","updateOwners(address[],address[])":"39562247","upgradeToAndCall(address,bytes)":"4f1ef286","validateUserOp((address,uint256,bytes,bytes,bytes32,uint256,bytes32,bytes,bytes),bytes32,uint256)":"19822f7c","withdrawDepositTo(address,uint256)":"4d44560d"},"id":77}