{"abi":[{"type":"function","name":"createWill","inputs":[],"outputs":[{"name":"","type":"address","internalType":"address"}],"stateMutability":"nonpayable"},{"type":"event","name":"WillCreated","inputs":[{"name":"willAddress","type":"address","indexed":true,"internalType":"address"},{"name":"owner","type":"address","indexed":true,"internalType":"address"}],"anonymous":false}],"bytecode":{"object":"0x608080604052346100165761171a908161001c8239f35b600080fdfe6080604090808252600436101561001557600080fd5b600090813560e01c63241d08a41461002c57600080fd5b3461019f57817ffffffffffffffffffffffffffffffffffffffffffffffffffffffffffffffffc36011261019f576115419081810167ffffffffffffffff9282821084831117610172579082916101a48339039083f080156101685773ffffffffffffffffffffffffffffffffffffffff1690813b15610164578351907ff2fde38b000000000000000000000000000000000000000000000000000000008252336004830152838260248183875af1801561015a57610117575b50506020925191817f19b0cad815d24c07aaa916842d617a9e8aa5dc7c762b1997b756561aecba106c339280a38152f35b819493941161012d5782529091906020386100e6565b6024847f4e487b710000000000000000000000000000000000000000000000000000000081526041600452fd5b85513d86823e3d90fd5b8280fd5b83513d84823e3d90fd5b6024857f4e487b710000000000000000000000000000000000000000000000000000000081526041600452fd5b5080fdfe608080604052346101065760008054909190336001600160a01b0382167f8be0079c531659141344cd1fd0a4f28419497f9722a3daafe3b4186f6b6457e08580a36001600160a81b0319163360ff60a01b19811691909117835560018055426002556301e13380600355156100b85750600480546001600160a01b03191633908117909155604051917ff4f14065be2883fbe428c293030373870dad7c53a9f95e65265efd066d740a909080a2611435908161010c8239f35b62461bcd60e51b815260206004820152602360248201527f57696c6c3a20696e76616c696420736d617274206163636f756e74206164647260448201526265737360e81b6064820152608490fd5b600080fdfe6080604052600436101561001257600080fd5b60003560e01c806292d6d7146101065780630f3a9f651461010157806317ca9a72146100fc57806327420494146100f75780633f4ba83a146100f257806345245ade146100ed5780635c975abb146100e8578063715018a6146100e3578063753899e9146100de5780638456cb59146100d95780638da5cb5b146100d4578063db9d42fe146100cf578063ea8932d8146100ca578063efeb5e58146100c55763f2fde38b146100c057600080fd5b610aa5565b610a44565b6109d9565b610987565b610935565b61088b565b610824565b610787565b610743565b610611565b610519565b6104dd565b610363565b610292565b61012e565b73ffffffffffffffffffffffffffffffffffffffff81160361012957565b600080fd5b346101295760207ffffffffffffffffffffffffffffffffffffffffffffffffffffffffffffffffc3601126101295773ffffffffffffffffffffffffffffffffffffffff60043561017e8161010b565b610186611313565b1680156101de57807fffffffffffffffffffffffff000000000000000000000000000000000000000060045416176004557ff4f14065be2883fbe428c293030373870dad7c53a9f95e65265efd066d740a90600080a2005b60846040517f08c379a000000000000000000000000000000000000000000000000000000000815260206004820152602360248201527f57696c6c3a20696e76616c696420736d617274206163636f756e74206164647260448201527f65737300000000000000000000000000000000000000000000000000000000006064820152fd5b7ffffffffffffffffffffffffffffffffffffffffffffffffffffffffffffffffc60209101126101295760043590565b34610129576102a036610262565b6102a8611313565b80156102df576020817f6649c90b5089688430ab3e855e2eedb017ca17f6eb1aed93805dcf4996a4da7d92600355604051908152a1005b60846040517f08c379a000000000000000000000000000000000000000000000000000000000815260206004820152602360248201527f57696c6c3a20706572696f64206d75737420626520677265617465722074686160448201527f6e203000000000000000000000000000000000000000000000000000000000006064820152fd5b346101295760207ffffffffffffffffffffffffffffffffffffffffffffffffffffffffffffffffc3601126101295760043567ffffffffffffffff8082116101295736602383011215610129578160040135908111610129576024820191602436918360051b010111610129576103d8611313565b801561047f576103e6610c0d565b60005b81811061042757507f3282145792cb00f83624973b19bb99b14ad0ade98b255bfe03e819ca866a822f9161042260405192839283610d9e565b0390a1005b8061046361045c61044361043e6001958789610c61565b610c76565b73ffffffffffffffffffffffffffffffffffffffff1690565b1515610c83565b61047961047461043e838688610c61565b610d0e565b016103e9565b60646040517f08c379a000000000000000000000000000000000000000000000000000000000815260206004820152601f60248201527f57696c6c3a20656d7074792062656e65666963696172696573206172726179006044820152fd5b346101295760007ffffffffffffffffffffffffffffffffffffffffffffffffffffffffffffffffc360112610129576020600354604051908152f35b34610129576000807ffffffffffffffffffffffffffffffffffffffffffffffffffffffffffffffffc36011261060e57610551611313565b805460ff8160a01c16156105b0577fffffffffffffffffffffff00ffffffffffffffffffffffffffffffffffffffff1681557f5db9ee0a495bf2e6ff9c91a7834c1ba4fdd244a5e8aa4e537bd38aeae4b073aa6020604051338152a180f35b60646040517f08c379a000000000000000000000000000000000000000000000000000000000815260206004820152601460248201527f5061757361626c653a206e6f74207061757365640000000000000000000000006044820152fd5b80fd5b34610129576000807ffffffffffffffffffffffffffffffffffffffffffffffffffffffffffffffffc36011261060e576001906002600154146106e557600260015561065b611392565b808160058054915b828110610689575b8461067585610dfb565b61067d610e86565b61068660018055565b80f35b8185523373ffffffffffffffffffffffffffffffffffffffff827f036b6384b5eca791c62761152d0c79bb0604c104a5fb6f4eb0703f3154bb3db0015416146106d3578501610663565b5050505090610675908291388061066b565b60646040517f08c379a000000000000000000000000000000000000000000000000000000000815260206004820152601f60248201527f5265656e7472616e637947756172643a207265656e7472616e742063616c6c006044820152fd5b346101295760007ffffffffffffffffffffffffffffffffffffffffffffffffffffffffffffffffc36011261012957602060ff60005460a01c166040519015158152f35b34610129576000807ffffffffffffffffffffffffffffffffffffffffffffffffffffffffffffffffc36011261060e576107bf611313565b8073ffffffffffffffffffffffffffffffffffffffff81547fffffffffffffffffffffffff000000000000000000000000000000000000000081168355167f8be0079c531659141344cd1fd0a4f28419497f9722a3daafe3b4186f6b6457e08280a380f35b346101295760007ffffffffffffffffffffffffffffffffffffffffffffffffffffffffffffffffc3601126101295761085b611313565b426002557f2db17d81b717f55b0558c0f46a200e066ba6a245ad6d177accb209acc0c4cda16020604051428152a1005b34610129576000807ffffffffffffffffffffffffffffffffffffffffffffffffffffffffffffffffc36011261060e576108c3611313565b6108cb611392565b740100000000000000000000000000000000000000007fffffffffffffffffffffff00ffffffffffffffffffffffffffffffffffffffff8254161781557f62e78cea01bee320cd4e420270b5ea74000d11b0c9f74754ebdbfc544b05a2586020604051338152a180f35b346101295760007ffffffffffffffffffffffffffffffffffffffffffffffffffffffffffffffffc36011261012957602073ffffffffffffffffffffffffffffffffffffffff60005416604051908152f35b346101295760007ffffffffffffffffffffffffffffffffffffffffffffffffffffffffffffffffc36011261012957602073ffffffffffffffffffffffffffffffffffffffff60045416604051908152f35b346101295760007ffffffffffffffffffffffffffffffffffffffffffffffffffffffffffffffffc360112610129576020600254604051908152f35b7f4e487b7100000000000000000000000000000000000000000000000000000000600052603260045260246000fd5b3461012957610a5236610262565b6005548110156101295773ffffffffffffffffffffffffffffffffffffffff60209160056000527f036b6384b5eca791c62761152d0c79bb0604c104a5fb6f4eb0703f3154bb3db0015416604051908152f35b346101295760207ffffffffffffffffffffffffffffffffffffffffffffffffffffffffffffffffc36011261012957600435610ae08161010b565b610ae8611313565b73ffffffffffffffffffffffffffffffffffffffff8091168015610b5a576000918254827fffffffffffffffffffffffff00000000000000000000000000000000000000008216178455167f8be0079c531659141344cd1fd0a4f28419497f9722a3daafe3b4186f6b6457e08380a380f35b60846040517f08c379a000000000000000000000000000000000000000000000000000000000815260206004820152602660248201527f4f776e61626c653a206e6577206f776e657220697320746865207a65726f206160448201527f64647265737300000000000000000000000000000000000000000000000000006064820152fd5b7f4e487b7100000000000000000000000000000000000000000000000000000000600052604160045260246000fd5b60055460008060055581610c1f575050565b60056000527f036b6384b5eca791c62761152d0c79bb0604c104a5fb6f4eb0703f3154bb3db0918201915b828110610c5657505050565b818155600101610c4a565b9190811015610c715760051b0190565b610a15565b35610c808161010b565b90565b15610c8a57565b60846040517f08c379a000000000000000000000000000000000000000000000000000000000815260206004820152602160248201527f57696c6c3a20696e76616c69642062656e65666963696172792061646472657360448201527f73000000000000000000000000000000000000000000000000000000000000006064820152fd5b60055468010000000000000000811015610d99576001810180600555811015610c715773ffffffffffffffffffffffffffffffffffffffff9060056000527f036b6384b5eca791c62761152d0c79bb0604c104a5fb6f4eb0703f3154bb3db00191167fffffffffffffffffffffffff0000000000000000000000000000000000000000825416179055565b610bde565b909160406020928260208201602083525201929160005b828110610dc3575050505090565b90919293828060019273ffffffffffffffffffffffffffffffffffffffff8835610dec8161010b565b16815201950193929101610db5565b15610e0257565b60846040517f08c379a000000000000000000000000000000000000000000000000000000000815260206004820152602160248201527f57696c6c3a2063616c6c6572206973206e6f7420612062656e6566696369617260448201527f79000000000000000000000000000000000000000000000000000000000000006064820152fd5b60025460035481018091116110705742111561101257610ea9600554151561109f565b600080610ecb60045473ffffffffffffffffffffffffffffffffffffffff1690565b610eec73ffffffffffffffffffffffffffffffffffffffff82161515611104565b610ef46111aa565b82604051610f5c81610f3060208201957fd99fe29500000000000000000000000000000000000000000000000000000000875260248301611246565b037fffffffffffffffffffffffffffffffffffffffffffffffffffffffffffffffe08101835282611169565b51925af1610f686112a6565b9015610fa257507f2d4e926f8cd4b3b36d192f4fd50bb2b01b0b358fb62b974c40da3b61c9759eec60405180610f9d81611304565b0390a1565b51611006576040517f08c379a000000000000000000000000000000000000000000000000000000000815260206004820152601f60248201527f57696c6c3a206f776e657273686970207472616e73666572206661696c6564006044820152606490fd5b6040513d90816000823efd5b60646040517f08c379a000000000000000000000000000000000000000000000000000000000815260206004820152601b60248201527f57696c6c3a206f776e6572206973207374696c6c2061637469766500000000006044820152fd5b7f4e487b7100000000000000000000000000000000000000000000000000000000600052601160045260246000fd5b156110a657565b60646040517f08c379a000000000000000000000000000000000000000000000000000000000815260206004820152601a60248201527f57696c6c3a206e6f2062656e65666963696172696573207365740000000000006044820152fd5b1561110b57565b60646040517f08c379a000000000000000000000000000000000000000000000000000000000815260206004820152601b60248201527f57696c6c3a20736d617274206163636f756e74206e6f742073657400000000006044820152fd5b90601f7fffffffffffffffffffffffffffffffffffffffffffffffffffffffffffffffe0910116810190811067ffffffffffffffff821117610d9957604052565b6040516020810181811067ffffffffffffffff821117610d995760405260008152906000368137565b6005549081815260208091019160056000527f036b6384b5eca791c62761152d0c79bb0604c104a5fb6f4eb0703f3154bb3db0916000905b828210611219575050505090565b835473ffffffffffffffffffffffffffffffffffffffff168552938401936001938401939091019061120b565b60408152611256604082016111d3565b81810360209283015282518082529082019282019160005b82811061127c575050505090565b835173ffffffffffffffffffffffffffffffffffffffff168552938101939281019260010161126e565b3d156112ff573d9067ffffffffffffffff8211610d9957604051916112f360207fffffffffffffffffffffffffffffffffffffffffffffffffffffffffffffffe0601f8401160184611169565b82523d6000602084013e565b606090565b6020610c8091818152016111d3565b73ffffffffffffffffffffffffffffffffffffffff60005416330361133457565b60646040517f08c379a000000000000000000000000000000000000000000000000000000000815260206004820152602060248201527f4f776e61626c653a2063616c6c6572206973206e6f7420746865206f776e65726044820152fd5b60ff60005460a01c166113a157565b60646040517f08c379a000000000000000000000000000000000000000000000000000000000815260206004820152601060248201527f5061757361626c653a20706175736564000000000000000000000000000000006044820152fdfea2646970667358221220595f2a312e67b46d198e3f037053e0f2b58cae2c17e1678f5871a0ae7d1582cf64736f6c63430008160033a26469706673582212205530000b97546781ca325066cb4de72604ff53520750984c181a30f074f6478964736f6c63430008160033","linkReferences":{}},"methodIdentifiers":{"createWill()":"241d08a4"},"id":9}