{"abi":[{"type":"function","name":"createWill","inputs":[{"name":"smartAccount","type":"address","internalType":"address"}],"outputs":[{"name":"","type":"address","internalType":"address"}],"stateMutability":"nonpayable"},{"type":"event","name":"WillCreated","inputs":[{"name":"willAddress","type":"address","indexed":true,"internalType":"address"},{"name":"owner","type":"address","indexed":true,"internalType":"address"}],"anonymous":false}],"bytecode":{"object":"0x6080806040523461001657611ae5908161001c8239f35b600080fdfe6080604090808252600436101561001557600080fd5b600090813560e01c637bb19c771461002c57600080fd5b346101ba5760207ffffffffffffffffffffffffffffffffffffffffffffffffffffffffffffffffc3601126101ba576004359073ffffffffffffffffffffffffffffffffffffffff908183168093036101b6576118f1928382019067ffffffffffffffff9483831086841117610189579183916020936101bf8439815203019084f0801561017f571690813b1561017b578351907ff2fde38b000000000000000000000000000000000000000000000000000000008252336004830152838260248183875af180156101715761012e575b50506020925191817f19b0cad815d24c07aaa916842d617a9e8aa5dc7c762b1997b756561aecba106c339280a38152f35b81949394116101445782529091906020386100fd565b6024847f4e487b710000000000000000000000000000000000000000000000000000000081526041600452fd5b85513d86823e3d90fd5b8280fd5b84513d85823e3d90fd5b6024877f4e487b710000000000000000000000000000000000000000000000000000000081526041600452fd5b8380fd5b5080fdfe60803461011f57601f6118f138819003918201601f19168301916001600160401b038311848410176101245780849260209460405283398101031261011f57516001600160a01b038082169182900361011f5760005460405191339082167f8be0079c531659141344cd1fd0a4f28419497f9722a3daafe3b4186f6b6457e0600080a36001600160a81b0319163360ff60a01b1916176000556001805581156100d15750600480546001600160a01b0319169190911790556276a700600355426002556040516117b6908161013b8239f35b62461bcd60e51b815260206004820152602360248201527f57696c6c3a20696e76616c696420736d617274206163636f756e74206164647260448201526265737360e81b6064820152608490fd5b600080fd5b634e487b7160e01b600052604160045260246000fdfe6080604052600436101561001257600080fd5b60003560e01c806292d6d71461016c5780630f3a9f6514610167578063176648d41461016257806317ca9a721461015d57806327420494146101585780633f4ba83a1461015357806345245ade1461014e5780635262f5ed1461011c5780635c975abb14610149578063715018a614610144578063753899e91461013f5780638456cb591461013a5780638da5cb5b14610135578063913b722c146101305780639d19b2261461012b578063b801787414610117578063c9c3d42e14610126578063cfcc839814610121578063db9d42fe1461011c578063ea8932d814610117578063efeb5e58146101125763f2fde38b1461010d57600080fd5b610d68565b610d07565b610c12565b6107f9565b610c97565b610c4e565b610bc3565b610aed565b610a3d565b610993565b61092c565b61088f565b61084b565b6106c7565b6105cf565b610593565b610419565b6103c9565b6102f8565b610194565b73ffffffffffffffffffffffffffffffffffffffff81160361018f57565b600080fd5b3461018f5760207ffffffffffffffffffffffffffffffffffffffffffffffffffffffffffffffffc36011261018f5773ffffffffffffffffffffffffffffffffffffffff6004356101e481610171565b6101ec611694565b16801561024457807fffffffffffffffffffffffff000000000000000000000000000000000000000060045416176004557ff4f14065be2883fbe428c293030373870dad7c53a9f95e65265efd066d740a90600080a2005b60846040517f08c379a000000000000000000000000000000000000000000000000000000000815260206004820152602360248201527f57696c6c3a20696e76616c696420736d617274206163636f756e74206164647260448201527f65737300000000000000000000000000000000000000000000000000000000006064820152fd5b7ffffffffffffffffffffffffffffffffffffffffffffffffffffffffffffffffc602091011261018f5760043590565b3461018f57610306366102c8565b61030e611694565b8015610345576020817f6649c90b5089688430ab3e855e2eedb017ca17f6eb1aed93805dcf4996a4da7d92600355604051908152a1005b60846040517f08c379a000000000000000000000000000000000000000000000000000000000815260206004820152602360248201527f57696c6c3a20706572696f64206d75737420626520677265617465722074686160448201527f6e203000000000000000000000000000000000000000000000000000000000006064820152fd5b3461018f5760007ffffffffffffffffffffffffffffffffffffffffffffffffffffffffffffffffc36011261018f576002546003548101809111610414576020906040519042118152f35b610ea1565b3461018f5760207ffffffffffffffffffffffffffffffffffffffffffffffffffffffffffffffffc36011261018f5760043567ffffffffffffffff80821161018f573660238301121561018f57816004013590811161018f576024820191602436918360051b01011161018f5761048e611694565b80156105355761049c610eff565b60005b8181106104dd57507f3282145792cb00f83624973b19bb99b14ad0ade98b255bfe03e819ca866a822f916104d860405192839283611088565b0390a1005b806105196105126104f96104f46001958789610f53565b610f63565b73ffffffffffffffffffffffffffffffffffffffff1690565b1515610f6d565b61052f61052a6104f4838688610f53565b610ff8565b0161049f565b60646040517f08c379a000000000000000000000000000000000000000000000000000000000815260206004820152601f60248201527f57696c6c3a20656d7074792062656e65666963696172696573206172726179006044820152fd5b3461018f5760007ffffffffffffffffffffffffffffffffffffffffffffffffffffffffffffffffc36011261018f576020600354604051908152f35b3461018f576000807ffffffffffffffffffffffffffffffffffffffffffffffffffffffffffffffffc3601126106c457610607611694565b805460ff8160a01c1615610666577fffffffffffffffffffffff00ffffffffffffffffffffffffffffffffffffffff1681557f5db9ee0a495bf2e6ff9c91a7834c1ba4fdd244a5e8aa4e537bd38aeae4b073aa6020604051338152a180f35b60646040517f08c379a000000000000000000000000000000000000000000000000000000000815260206004820152601460248201527f5061757361626c653a206e6f74207061757365640000000000000000000000006044820152fd5b80fd5b3461018f576000807ffffffffffffffffffffffffffffffffffffffffffffffffffffffffffffffffc3601126106c45760019060026001541461079b576002600155610711611713565b808160058054915b82811061073f575b8461072b856110e5565b610733611170565b61073c60018055565b80f35b8185523373ffffffffffffffffffffffffffffffffffffffff827f036b6384b5eca791c62761152d0c79bb0604c104a5fb6f4eb0703f3154bb3db001541614610789578501610719565b505050509061072b9082913880610721565b60646040517f08c379a000000000000000000000000000000000000000000000000000000000815260206004820152601f60248201527f5265656e7472616e637947756172643a207265656e7472616e742063616c6c006044820152fd5b3461018f5760007ffffffffffffffffffffffffffffffffffffffffffffffffffffffffffffffffc36011261018f57602073ffffffffffffffffffffffffffffffffffffffff60045416604051908152f35b3461018f5760007ffffffffffffffffffffffffffffffffffffffffffffffffffffffffffffffffc36011261018f57602060ff60005460a01c166040519015158152f35b3461018f576000807ffffffffffffffffffffffffffffffffffffffffffffffffffffffffffffffffc3601126106c4576108c7611694565b8073ffffffffffffffffffffffffffffffffffffffff81547fffffffffffffffffffffffff000000000000000000000000000000000000000081168355167f8be0079c531659141344cd1fd0a4f28419497f9722a3daafe3b4186f6b6457e08280a380f35b3461018f5760007ffffffffffffffffffffffffffffffffffffffffffffffffffffffffffffffffc36011261018f57610963611694565b426002557f2db17d81b717f55b0558c0f46a200e066ba6a245ad6d177accb209acc0c4cda16020604051428152a1005b3461018f576000807ffffffffffffffffffffffffffffffffffffffffffffffffffffffffffffffffc3601126106c4576109cb611694565b6109d3611713565b740100000000000000000000000000000000000000007fffffffffffffffffffffff00ffffffffffffffffffffffffffffffffffffffff8254161781557f62e78cea01bee320cd4e420270b5ea74000d11b0c9f74754ebdbfc544b05a2586020604051338152a180f35b3461018f5760007ffffffffffffffffffffffffffffffffffffffffffffffffffffffffffffffffc36011261018f57602073ffffffffffffffffffffffffffffffffffffffff60005416604051908152f35b90815180825260208080930193019160005b828110610aaf575050505090565b835173ffffffffffffffffffffffffffffffffffffffff1685529381019392810192600101610aa1565b906020610aea928181520190610a8f565b90565b3461018f576000807ffffffffffffffffffffffffffffffffffffffffffffffffffffffffffffffffc36011261018f576005805490610b2b826114a6565b9160005b818110610b485760405180610b448682610ad9565b0390f35b82855273ffffffffffffffffffffffffffffffffffffffff817f036b6384b5eca791c62761152d0c79bb0604c104a5fb6f4eb0703f3154bb3db0015416908451811015610bbe57610bb8600192602083871b8801019073ffffffffffffffffffffffffffffffffffffffff169052565b01610b2f565b610cd8565b3461018f5760207ffffffffffffffffffffffffffffffffffffffffffffffffffffffffffffffffc36011261018f576020610c08600435610c0381610171565b6115f7565b6040519015158152f35b3461018f5760007ffffffffffffffffffffffffffffffffffffffffffffffffffffffffffffffffc36011261018f576020600254604051908152f35b3461018f5760007ffffffffffffffffffffffffffffffffffffffffffffffffffffffffffffffffc36011261018f57600254600354810180911161041457602090604051908152f35b3461018f5760007ffffffffffffffffffffffffffffffffffffffffffffffffffffffffffffffffc36011261018f576020610cd061166a565b604051908152f35b7f4e487b7100000000000000000000000000000000000000000000000000000000600052603260045260246000fd5b3461018f57610d15366102c8565b60055481101561018f5773ffffffffffffffffffffffffffffffffffffffff60209160056000527f036b6384b5eca791c62761152d0c79bb0604c104a5fb6f4eb0703f3154bb3db0015416604051908152f35b3461018f5760207ffffffffffffffffffffffffffffffffffffffffffffffffffffffffffffffffc36011261018f57600435610da381610171565b610dab611694565b73ffffffffffffffffffffffffffffffffffffffff8091168015610e1d576000918254827fffffffffffffffffffffffff00000000000000000000000000000000000000008216178455167f8be0079c531659141344cd1fd0a4f28419497f9722a3daafe3b4186f6b6457e08380a380f35b60846040517f08c379a000000000000000000000000000000000000000000000000000000000815260206004820152602660248201527f4f776e61626c653a206e6577206f776e657220697320746865207a65726f206160448201527f64647265737300000000000000000000000000000000000000000000000000006064820152fd5b7f4e487b7100000000000000000000000000000000000000000000000000000000600052601160045260246000fd5b7f4e487b7100000000000000000000000000000000000000000000000000000000600052604160045260246000fd5b60055460008060055581610f11575050565b60056000527f036b6384b5eca791c62761152d0c79bb0604c104a5fb6f4eb0703f3154bb3db0918201915b828110610f4857505050565b818155600101610f3c565b9190811015610bbe5760051b0190565b35610aea81610171565b15610f7457565b60846040517f08c379a000000000000000000000000000000000000000000000000000000000815260206004820152602160248201527f57696c6c3a20696e76616c69642062656e65666963696172792061646472657360448201527f73000000000000000000000000000000000000000000000000000000000000006064820152fd5b60055468010000000000000000811015611083576001810180600555811015610bbe5773ffffffffffffffffffffffffffffffffffffffff9060056000527f036b6384b5eca791c62761152d0c79bb0604c104a5fb6f4eb0703f3154bb3db00191167fffffffffffffffffffffffff0000000000000000000000000000000000000000825416179055565b610ed0565b909160406020928260208201602083525201929160005b8281106110ad575050505090565b90919293828060019273ffffffffffffffffffffffffffffffffffffffff88356110d681610171565b1681520195019392910161109f565b156110ec57565b60846040517f08c379a000000000000000000000000000000000000000000000000000000000815260206004820152602160248201527f57696c6c3a2063616c6c6572206973206e6f7420612062656e6566696369617260448201527f79000000000000000000000000000000000000000000000000000000000000006064820152fd5b6002546003548101809111610414574211156112fc57611193600554151561135a565b6000806111b560045473ffffffffffffffffffffffffffffffffffffffff1690565b6111d673ffffffffffffffffffffffffffffffffffffffff821615156113bf565b6111de61147d565b826040516112468161121a60208201957f3956224700000000000000000000000000000000000000000000000000000000875260248301611568565b037fffffffffffffffffffffffffffffffffffffffffffffffffffffffffffffffe08101835282611424565b51925af161125261158a565b901561128c57507f2d4e926f8cd4b3b36d192f4fd50bb2b01b0b358fb62b974c40da3b61c9759eec60405180611287816115e8565b0390a1565b516112f0576040517f08c379a000000000000000000000000000000000000000000000000000000000815260206004820152601f60248201527f57696c6c3a206f776e657273686970207472616e73666572206661696c6564006044820152606490fd5b6040513d90816000823efd5b60646040517f08c379a000000000000000000000000000000000000000000000000000000000815260206004820152601b60248201527f57696c6c3a206f776e6572206973207374696c6c2061637469766500000000006044820152fd5b1561136157565b60646040517f08c379a000000000000000000000000000000000000000000000000000000000815260206004820152601a60248201527f57696c6c3a206e6f2062656e65666963696172696573207365740000000000006044820152fd5b156113c657565b60646040517f08c379a000000000000000000000000000000000000000000000000000000000815260206004820152601b60248201527f57696c6c3a20736d617274206163636f756e74206e6f742073657400000000006044820152fd5b90601f7fffffffffffffffffffffffffffffffffffffffffffffffffffffffffffffffe0910116810190811067ffffffffffffffff82111761108357604052565b67ffffffffffffffff81116110835760051b60200190565b6040516020810181811067ffffffffffffffff8211176110835760405260008152906000368137565b906114b082611465565b6114bd6040519182611424565b8281527fffffffffffffffffffffffffffffffffffffffffffffffffffffffffffffffe06114eb8294611465565b0190602036910137565b6005549081815260208091019160056000527f036b6384b5eca791c62761152d0c79bb0604c104a5fb6f4eb0703f3154bb3db0916000905b82821061153b575050505090565b835473ffffffffffffffffffffffffffffffffffffffff168552938401936001938401939091019061152d565b610aea916040825261157c604083016114f5565b916020818403910152610a8f565b3d156115e3573d9067ffffffffffffffff821161108357604051916115d760207fffffffffffffffffffffffffffffffffffffffffffffffffffffffffffffffe0601f8401160184611424565b82523d6000602084013e565b606090565b6020610aea91818152016114f5565b6005805491906000805b848110611612575050505050600090565b82825273ffffffffffffffffffffffffffffffffffffffff80827f036b6384b5eca791c62761152d0c79bb0604c104a5fb6f4eb0703f3154bb3db00154169085161461166057600101611601565b5050505050600190565b6002546003548101809111610414578042101561168e574281039081116104145790565b50600090565b73ffffffffffffffffffffffffffffffffffffffff6000541633036116b557565b60646040517f08c379a000000000000000000000000000000000000000000000000000000000815260206004820152602060248201527f4f776e61626c653a2063616c6c6572206973206e6f7420746865206f776e65726044820152fd5b60ff60005460a01c1661172257565b60646040517f08c379a000000000000000000000000000000000000000000000000000000000815260206004820152601060248201527f5061757361626c653a20706175736564000000000000000000000000000000006044820152fdfea2646970667358221220ba966e0df8df03c94a464b28ac8fbff65a37eeba3445367936ce42b41fe1b75364736f6c63430008160033a2646970667358221220a2a3a2d0602f700ac3e770abfde084fef9a9af3bb0a4467bc1581e1f1e61d80164736f6c63430008160033","linkReferences":{}},"methodIdentifiers":{"createWill(address)":"7bb19c77"},"id":31}