{"abi":[{"type":"constructor","inputs":[],"stateMutability":"nonpayable"},{"type":"function","name":"adminTestClaimAccount","inputs":[],"outputs":[],"stateMutability":"nonpayable"},{"type":"function","name":"alive","inputs":[],"outputs":[],"stateMutability":"nonpayable"},{"type":"function","name":"beneficiaries","inputs":[{"name":"","type":"uint256","internalType":"uint256"}],"outputs":[{"name":"","type":"address","internalType":"address"}],"stateMutability":"view"},{"type":"function","name":"claimAccount","inputs":[],"outputs":[],"stateMutability":"nonpayable"},{"type":"function","name":"getBeneficiaries","inputs":[],"outputs":[{"name":"","type":"address[]","internalType":"address[]"}],"stateMutability":"view"},{"type":"function","name":"getSmartAccount","inputs":[],"outputs":[{"name":"","type":"address","internalType":"address"}],"stateMutability":"view"},{"type":"function","name":"isBeneficiary","inputs":[{"name":"account","type":"address","internalType":"address"}],"outputs":[{"name":"","type":"bool","internalType":"bool"}],"stateMutability":"view"},{"type":"function","name":"isWillExecutable","inputs":[],"outputs":[{"name":"","type":"bool","internalType":"bool"}],"stateMutability":"view"},{"type":"function","name":"lastActiveTime","inputs":[],"outputs":[{"name":"","type":"uint256","internalType":"uint256"}],"stateMutability":"view"},{"type":"function","name":"owner","inputs":[],"outputs":[{"name":"","type":"address","internalType":"address"}],"stateMutability":"view"},{"type":"function","name":"pause","inputs":[],"outputs":[],"stateMutability":"nonpayable"},{"type":"function","name":"paused","inputs":[],"outputs":[{"name":"","type":"bool","internalType":"bool"}],"stateMutability":"view"},{"type":"function","name":"proofOfLifePeriod","inputs":[],"outputs":[{"name":"","type":"uint256","internalType":"uint256"}],"stateMutability":"view"},{"type":"function","name":"renounceOwnership","inputs":[],"outputs":[],"stateMutability":"nonpayable"},{"type":"function","name":"setBeneficiaries","inputs":[{"name":"_beneficiaries","type":"address[]","internalType":"address[]"}],"outputs":[],"stateMutability":"nonpayable"},{"type":"function","name":"setPeriod","inputs":[{"name":"newPeriod","type":"uint256","internalType":"uint256"}],"outputs":[],"stateMutability":"nonpayable"},{"type":"function","name":"setSmartAccount","inputs":[{"name":"_smartAccount","type":"address","internalType":"address"}],"outputs":[],"stateMutability":"nonpayable"},{"type":"function","name":"smartAccount","inputs":[],"outputs":[{"name":"","type":"address","internalType":"address"}],"stateMutability":"view"},{"type":"function","name":"timeUntilWillExecution","inputs":[],"outputs":[{"name":"","type":"uint256","internalType":"uint256"}],"stateMutability":"view"},{"type":"function","name":"transferOwnership","inputs":[{"name":"newOwner","type":"address","internalType":"address"}],"outputs":[],"stateMutability":"nonpayable"},{"type":"function","name":"unpause","inputs":[],"outputs":[],"stateMutability":"nonpayable"},{"type":"event","name":"AccountClaimed","inputs":[{"name":"newOwners","type":"address[]","indexed":false,"internalType":"address[]"}],"anonymous":false},{"type":"event","name":"BeneficiariesUpdated","inputs":[{"name":"beneficiaries","type":"address[]","indexed":false,"internalType":"address[]"}],"anonymous":false},{"type":"event","name":"FundsWithdrawn","inputs":[{"name":"to","type":"address","indexed":true,"internalType":"address"},{"name":"amount","type":"uint256","indexed":false,"internalType":"uint256"}],"anonymous":false},{"type":"event","name":"OwnershipTransferred","inputs":[{"name":"previousOwner","type":"address","indexed":true,"internalType":"address"},{"name":"newOwner","type":"address","indexed":true,"internalType":"address"}],"anonymous":false},{"type":"event","name":"Paused","inputs":[{"name":"account","type":"address","indexed":false,"internalType":"address"}],"anonymous":false},{"type":"event","name":"PeriodSet","inputs":[{"name":"newPeriod","type":"uint256","indexed":false,"internalType":"uint256"}],"anonymous":false},{"type":"event","name":"ProofOfLife","inputs":[{"name":"timestamp","type":"uint256","indexed":false,"internalType":"uint256"}],"anonymous":false},{"type":"event","name":"SmartAccountSet","inputs":[{"name":"smartAccount","type":"address","indexed":true,"internalType":"address"}],"anonymous":false},{"type":"event","name":"TokensWithdrawn","inputs":[{"name":"token","type":"address","indexed":true,"internalType":"address"},{"name":"to","type":"address","indexed":true,"internalType":"address"},{"name":"amount","type":"uint256","indexed":false,"internalType":"uint256"}],"anonymous":false},{"type":"event","name":"Unpaused","inputs":[{"name":"account","type":"address","indexed":false,"internalType":"address"}],"anonymous":false}],"bytecode":{"object":"0x608080604052346101065760008054909190336001600160a01b0382167f8be0079c531659141344cd1fd0a4f28419497f9722a3daafe3b4186f6b6457e08580a36001600160a81b0319163360ff60a01b19811691909117835560018055426002556301e13380600355156100b85750600480546001600160a01b03191633908117909155604051917ff4f14065be2883fbe428c293030373870dad7c53a9f95e65265efd066d740a909080a26118b8908161010c8239f35b62461bcd60e51b815260206004820152602360248201527f57696c6c3a20696e76616c696420736d617274206163636f756e74206164647260448201526265737360e81b6064820152608490fd5b600080fdfe6080604052600436101561001257600080fd5b60003560e01c806292d6d7146101615780630f3a9f651461015c578063176648d41461015757806317ca9a7214610152578063274204941461014d5780633f4ba83a1461014857806345245ade146101435780635262f5ed146101115780635c975abb1461013e578063715018a614610139578063753899e914610134578063842f72d51461012f5780638456cb591461012a5780638da5cb5b14610125578063913b722c146101205780639d19b2261461011b578063cfcc839814610116578063db9d42fe14610111578063ea8932d81461010c578063efeb5e58146101075763f2fde38b1461010257600080fd5b610eb2565b610e51565b610de6565b610805565b610da5565b610d56565b610c80565b610bd0565b610b26565b61099f565b610938565b61089b565b610857565b6106bc565b6105c4565b610588565b61040e565b6103be565b6102ed565b610189565b73ffffffffffffffffffffffffffffffffffffffff81160361018457565b600080fd5b346101845760207ffffffffffffffffffffffffffffffffffffffffffffffffffffffffffffffffc3601126101845773ffffffffffffffffffffffffffffffffffffffff6004356101d981610166565b6101e1611727565b16801561023957807fffffffffffffffffffffffff000000000000000000000000000000000000000060045416176004557ff4f14065be2883fbe428c293030373870dad7c53a9f95e65265efd066d740a90600080a2005b60846040517f08c379a000000000000000000000000000000000000000000000000000000000815260206004820152602360248201527f57696c6c3a20696e76616c696420736d617274206163636f756e74206164647260448201527f65737300000000000000000000000000000000000000000000000000000000006064820152fd5b7ffffffffffffffffffffffffffffffffffffffffffffffffffffffffffffffffc60209101126101845760043590565b34610184576102fb366102bd565b610303611727565b801561033a576020817f6649c90b5089688430ab3e855e2eedb017ca17f6eb1aed93805dcf4996a4da7d92600355604051908152a1005b60846040517f08c379a000000000000000000000000000000000000000000000000000000000815260206004820152602360248201527f57696c6c3a20706572696f64206d75737420626520677265617465722074686160448201527f6e203000000000000000000000000000000000000000000000000000000000006064820152fd5b346101845760007ffffffffffffffffffffffffffffffffffffffffffffffffffffffffffffffffc360112610184576002546003548101809111610409576020906040519042118152f35b610feb565b346101845760207ffffffffffffffffffffffffffffffffffffffffffffffffffffffffffffffffc3601126101845760043567ffffffffffffffff8082116101845736602383011215610184578160040135908111610184576024820191602436918360051b01011161018457610483611727565b801561052a57610491611049565b60005b8181106104d257507f3282145792cb00f83624973b19bb99b14ad0ade98b255bfe03e819ca866a822f916104cd604051928392836111d2565b0390a1005b8061050e6105076104ee6104e9600195878961109d565b6110ad565b73ffffffffffffffffffffffffffffffffffffffff1690565b15156110b7565b61052461051f6104e983868861109d565b611142565b01610494565b60646040517f08c379a000000000000000000000000000000000000000000000000000000000815260206004820152601f60248201527f57696c6c3a20656d7074792062656e65666963696172696573206172726179006044820152fd5b346101845760007ffffffffffffffffffffffffffffffffffffffffffffffffffffffffffffffffc360112610184576020600354604051908152f35b34610184576000807ffffffffffffffffffffffffffffffffffffffffffffffffffffffffffffffffc3601126106b9576105fc611727565b805460ff8160a01c161561065b577fffffffffffffffffffffff00ffffffffffffffffffffffffffffffffffffffff1681557f5db9ee0a495bf2e6ff9c91a7834c1ba4fdd244a5e8aa4e537bd38aeae4b073aa6020604051338152a180f35b60646040517f08c379a000000000000000000000000000000000000000000000000000000000815260206004820152601460248201527f5061757361626c653a206e6f74207061757365640000000000000000000000006044820152fd5b80fd5b34610184576000807ffffffffffffffffffffffffffffffffffffffffffffffffffffffffffffffffc3601126106b9576106f46117a6565b6106fc611815565b808160058054915b8281106107ac575b505050156107285761071c61122f565b61072560018055565b80f35b60846040517f08c379a000000000000000000000000000000000000000000000000000000000815260206004820152602160248201527f57696c6c3a2063616c6c6572206973206e6f7420612062656e6566696369617260448201527f79000000000000000000000000000000000000000000000000000000000000006064820152fd5b8185523373ffffffffffffffffffffffffffffffffffffffff827f036b6384b5eca791c62761152d0c79bb0604c104a5fb6f4eb0703f3154bb3db0015416146107f757600101610704565b50505050600138808061070c565b346101845760007ffffffffffffffffffffffffffffffffffffffffffffffffffffffffffffffffc36011261018457602073ffffffffffffffffffffffffffffffffffffffff60045416604051908152f35b346101845760007ffffffffffffffffffffffffffffffffffffffffffffffffffffffffffffffffc36011261018457602060ff60005460a01c166040519015158152f35b34610184576000807ffffffffffffffffffffffffffffffffffffffffffffffffffffffffffffffffc3601126106b9576108d3611727565b8073ffffffffffffffffffffffffffffffffffffffff81547fffffffffffffffffffffffff000000000000000000000000000000000000000081168355167f8be0079c531659141344cd1fd0a4f28419497f9722a3daafe3b4186f6b6457e08280a380f35b346101845760007ffffffffffffffffffffffffffffffffffffffffffffffffffffffffffffffffc3601126101845761096f611727565b426002557f2db17d81b717f55b0558c0f46a200e066ba6a245ad6d177accb209acc0c4cda16020604051428152a1005b34610184576000807ffffffffffffffffffffffffffffffffffffffffffffffffffffffffffffffffc3601126106b9576109d76117a6565b6109df611815565b80806109e9611510565b60045473ffffffffffffffffffffffffffffffffffffffff169082604051610a6b81610a3f60208201957f39562247000000000000000000000000000000000000000000000000000000008752602483016115fb565b037fffffffffffffffffffffffffffffffffffffffffffffffffffffffffffffffe081018352826114b7565b51925af1610a7761161d565b9015610ab857507f2d4e926f8cd4b3b36d192f4fd50bb2b01b0b358fb62b974c40da3b61c9759eec60405180610aac8161167b565b0390a161072560018055565b51610b1c576040517f08c379a000000000000000000000000000000000000000000000000000000000815260206004820152601f60248201527f57696c6c3a206f776e657273686970207472616e73666572206661696c6564006044820152606490fd5b6040513d8092823efd5b34610184576000807ffffffffffffffffffffffffffffffffffffffffffffffffffffffffffffffffc3601126106b957610b5e611727565b610b66611815565b740100000000000000000000000000000000000000007fffffffffffffffffffffff00ffffffffffffffffffffffffffffffffffffffff8254161781557f62e78cea01bee320cd4e420270b5ea74000d11b0c9f74754ebdbfc544b05a2586020604051338152a180f35b346101845760007ffffffffffffffffffffffffffffffffffffffffffffffffffffffffffffffffc36011261018457602073ffffffffffffffffffffffffffffffffffffffff60005416604051908152f35b90815180825260208080930193019160005b828110610c42575050505090565b835173ffffffffffffffffffffffffffffffffffffffff1685529381019392810192600101610c34565b906020610c7d928181520190610c22565b90565b34610184576000807ffffffffffffffffffffffffffffffffffffffffffffffffffffffffffffffffc360112610184576005805490610cbe82611539565b9160005b818110610cdb5760405180610cd78682610c6c565b0390f35b82855273ffffffffffffffffffffffffffffffffffffffff817f036b6384b5eca791c62761152d0c79bb0604c104a5fb6f4eb0703f3154bb3db0015416908451811015610d5157610d4b600192602083871b8801019073ffffffffffffffffffffffffffffffffffffffff169052565b01610cc2565b610e22565b346101845760207ffffffffffffffffffffffffffffffffffffffffffffffffffffffffffffffffc360112610184576020610d9b600435610d9681610166565b61168a565b6040519015158152f35b346101845760007ffffffffffffffffffffffffffffffffffffffffffffffffffffffffffffffffc360112610184576020610dde6116fd565b604051908152f35b346101845760007ffffffffffffffffffffffffffffffffffffffffffffffffffffffffffffffffc360112610184576020600254604051908152f35b7f4e487b7100000000000000000000000000000000000000000000000000000000600052603260045260246000fd5b3461018457610e5f366102bd565b6005548110156101845773ffffffffffffffffffffffffffffffffffffffff60209160056000527f036b6384b5eca791c62761152d0c79bb0604c104a5fb6f4eb0703f3154bb3db0015416604051908152f35b346101845760207ffffffffffffffffffffffffffffffffffffffffffffffffffffffffffffffffc36011261018457600435610eed81610166565b610ef5611727565b73ffffffffffffffffffffffffffffffffffffffff8091168015610f67576000918254827fffffffffffffffffffffffff00000000000000000000000000000000000000008216178455167f8be0079c531659141344cd1fd0a4f28419497f9722a3daafe3b4186f6b6457e08380a380f35b60846040517f08c379a000000000000000000000000000000000000000000000000000000000815260206004820152602660248201527f4f776e61626c653a206e6577206f776e657220697320746865207a65726f206160448201527f64647265737300000000000000000000000000000000000000000000000000006064820152fd5b7f4e487b7100000000000000000000000000000000000000000000000000000000600052601160045260246000fd5b7f4e487b7100000000000000000000000000000000000000000000000000000000600052604160045260246000fd5b6005546000806005558161105b575050565b60056000527f036b6384b5eca791c62761152d0c79bb0604c104a5fb6f4eb0703f3154bb3db0918201915b82811061109257505050565b818155600101611086565b9190811015610d515760051b0190565b35610c7d81610166565b156110be57565b60846040517f08c379a000000000000000000000000000000000000000000000000000000000815260206004820152602160248201527f57696c6c3a20696e76616c69642062656e65666963696172792061646472657360448201527f73000000000000000000000000000000000000000000000000000000000000006064820152fd5b600554680100000000000000008110156111cd576001810180600555811015610d515773ffffffffffffffffffffffffffffffffffffffff9060056000527f036b6384b5eca791c62761152d0c79bb0604c104a5fb6f4eb0703f3154bb3db00191167fffffffffffffffffffffffff0000000000000000000000000000000000000000825416179055565b61101a565b909160406020928260208201602083525201929160005b8281106111f7575050505090565b90919293828060019273ffffffffffffffffffffffffffffffffffffffff883561122081610166565b168152019501939291016111e9565b60025460035481018091116104095742111561138f5761125260055415156113ed565b60008061127460045473ffffffffffffffffffffffffffffffffffffffff1690565b61129573ffffffffffffffffffffffffffffffffffffffff82161515611452565b61129d611510565b826040516112d981610a3f60208201957f39562247000000000000000000000000000000000000000000000000000000008752602483016115fb565b51925af16112e561161d565b901561131f57507f2d4e926f8cd4b3b36d192f4fd50bb2b01b0b358fb62b974c40da3b61c9759eec6040518061131a8161167b565b0390a1565b51611383576040517f08c379a000000000000000000000000000000000000000000000000000000000815260206004820152601f60248201527f57696c6c3a206f776e657273686970207472616e73666572206661696c6564006044820152606490fd5b6040513d90816000823efd5b60646040517f08c379a000000000000000000000000000000000000000000000000000000000815260206004820152601b60248201527f57696c6c3a206f776e6572206973207374696c6c2061637469766500000000006044820152fd5b156113f457565b60646040517f08c379a000000000000000000000000000000000000000000000000000000000815260206004820152601a60248201527f57696c6c3a206e6f2062656e65666963696172696573207365740000000000006044820152fd5b1561145957565b60646040517f08c379a000000000000000000000000000000000000000000000000000000000815260206004820152601b60248201527f57696c6c3a20736d617274206163636f756e74206e6f742073657400000000006044820152fd5b90601f7fffffffffffffffffffffffffffffffffffffffffffffffffffffffffffffffe0910116810190811067ffffffffffffffff8211176111cd57604052565b67ffffffffffffffff81116111cd5760051b60200190565b6040516020810181811067ffffffffffffffff8211176111cd5760405260008152906000368137565b90611543826114f8565b61155060405191826114b7565b8281527fffffffffffffffffffffffffffffffffffffffffffffffffffffffffffffffe061157e82946114f8565b0190602036910137565b6005549081815260208091019160056000527f036b6384b5eca791c62761152d0c79bb0604c104a5fb6f4eb0703f3154bb3db0916000905b8282106115ce575050505090565b835473ffffffffffffffffffffffffffffffffffffffff16855293840193600193840193909101906115c0565b610c7d916040825261160f60408301611588565b916020818403910152610c22565b3d15611676573d9067ffffffffffffffff82116111cd576040519161166a60207fffffffffffffffffffffffffffffffffffffffffffffffffffffffffffffffe0601f84011601846114b7565b82523d6000602084013e565b606090565b6020610c7d9181815201611588565b6005805491906000805b8481106116a5575050505050600090565b82825273ffffffffffffffffffffffffffffffffffffffff80827f036b6384b5eca791c62761152d0c79bb0604c104a5fb6f4eb0703f3154bb3db0015416908516146116f357600101611694565b5050505050600190565b60025460035481018091116104095780421015611721574281039081116104095790565b50600090565b73ffffffffffffffffffffffffffffffffffffffff60005416330361174857565b60646040517f08c379a000000000000000000000000000000000000000000000000000000000815260206004820152602060248201527f4f776e61626c653a2063616c6c6572206973206e6f7420746865206f776e65726044820152fd5b6002600154146117b7576002600155565b60646040517f08c379a000000000000000000000000000000000000000000000000000000000815260206004820152601f60248201527f5265656e7472616e637947756172643a207265656e7472616e742063616c6c006044820152fd5b60ff60005460a01c1661182457565b60646040517f08c379a000000000000000000000000000000000000000000000000000000000815260206004820152601060248201527f5061757361626c653a20706175736564000000000000000000000000000000006044820152fdfea26469706673582212208405bc0e62f5b31a6cc247554ec8ee95519f21964de825c1e12a57f690dd6c8064736f6c63430008160033","linkReferences":{}},"methodIdentifiers":{"adminTestClaimAccount()":"842f72d5","alive()":"753899e9","beneficiaries(uint256)":"efeb5e58","claimAccount()":"45245ade","getBeneficiaries()":"913b722c","getSmartAccount()":"5262f5ed","isBeneficiary(address)":"9d19b226","isWillExecutable()":"176648d4","lastActiveTime()":"ea8932d8","owner()":"8da5cb5b","pause()":"8456cb59","paused()":"5c975abb","proofOfLifePeriod()":"27420494","renounceOwnership()":"715018a6","setBeneficiaries(address[])":"17ca9a72","setPeriod(uint256)":"0f3a9f65","setSmartAccount(address)":"0092d6d7","smartAccount()":"db9d42fe","timeUntilWillExecution()":"cfcc8398","transferOwnership(address)":"f2fde38b","unpause()":"3f4ba83a"},"id":33}