{"abi":[{"type":"constructor","inputs":[],"stateMutability":"nonpayable"},{"type":"function","name":"alive","inputs":[],"outputs":[],"stateMutability":"nonpayable"},{"type":"function","name":"beneficiaries","inputs":[{"name":"","type":"uint256","internalType":"uint256"}],"outputs":[{"name":"","type":"address","internalType":"address"}],"stateMutability":"view"},{"type":"function","name":"claimAccount","inputs":[],"outputs":[],"stateMutability":"nonpayable"},{"type":"function","name":"getBeneficiaries","inputs":[],"outputs":[{"name":"","type":"address[]","internalType":"address[]"}],"stateMutability":"view"},{"type":"function","name":"getSmartAccount","inputs":[],"outputs":[{"name":"","type":"address","internalType":"address"}],"stateMutability":"view"},{"type":"function","name":"isBeneficiary","inputs":[{"name":"account","type":"address","internalType":"address"}],"outputs":[{"name":"","type":"bool","internalType":"bool"}],"stateMutability":"view"},{"type":"function","name":"isWillExecutable","inputs":[],"outputs":[{"name":"","type":"bool","internalType":"bool"}],"stateMutability":"view"},{"type":"function","name":"lastActiveTime","inputs":[],"outputs":[{"name":"","type":"uint256","internalType":"uint256"}],"stateMutability":"view"},{"type":"function","name":"owner","inputs":[],"outputs":[{"name":"","type":"address","internalType":"address"}],"stateMutability":"view"},{"type":"function","name":"pause","inputs":[],"outputs":[],"stateMutability":"nonpayable"},{"type":"function","name":"paused","inputs":[],"outputs":[{"name":"","type":"bool","internalType":"bool"}],"stateMutability":"view"},{"type":"function","name":"proofOfLifePeriod","inputs":[],"outputs":[{"name":"","type":"uint256","internalType":"uint256"}],"stateMutability":"view"},{"type":"function","name":"renounceOwnership","inputs":[],"outputs":[],"stateMutability":"nonpayable"},{"type":"function","name":"setBeneficiaries","inputs":[{"name":"_beneficiaries","type":"address[]","internalType":"address[]"}],"outputs":[],"stateMutability":"nonpayable"},{"type":"function","name":"setPeriod","inputs":[{"name":"newPeriod","type":"uint256","internalType":"uint256"}],"outputs":[],"stateMutability":"nonpayable"},{"type":"function","name":"setSmartAccount","inputs":[{"name":"_smartAccount","type":"address","internalType":"address"}],"outputs":[],"stateMutability":"nonpayable"},{"type":"function","name":"smartAccount","inputs":[],"outputs":[{"name":"","type":"address","internalType":"address"}],"stateMutability":"view"},{"type":"function","name":"timeUntilWillExecution","inputs":[],"outputs":[{"name":"","type":"uint256","internalType":"uint256"}],"stateMutability":"view"},{"type":"function","name":"transferOwnership","inputs":[{"name":"newOwner","type":"address","internalType":"address"}],"outputs":[],"stateMutability":"nonpayable"},{"type":"function","name":"unpause","inputs":[],"outputs":[],"stateMutability":"nonpayable"},{"type":"event","name":"AccountClaimed","inputs":[{"name":"newOwners","type":"address[]","indexed":false,"internalType":"address[]"}],"anonymous":false},{"type":"event","name":"BeneficiariesUpdated","inputs":[{"name":"beneficiaries","type":"address[]","indexed":false,"internalType":"address[]"}],"anonymous":false},{"type":"event","name":"FundsWithdrawn","inputs":[{"name":"to","type":"address","indexed":true,"internalType":"address"},{"name":"amount","type":"uint256","indexed":false,"internalType":"uint256"}],"anonymous":false},{"type":"event","name":"OwnershipTransferred","inputs":[{"name":"previousOwner","type":"address","indexed":true,"internalType":"address"},{"name":"newOwner","type":"address","indexed":true,"internalType":"address"}],"anonymous":false},{"type":"event","name":"Paused","inputs":[{"name":"account","type":"address","indexed":false,"internalType":"address"}],"anonymous":false},{"type":"event","name":"PeriodSet","inputs":[{"name":"newPeriod","type":"uint256","indexed":false,"internalType":"uint256"}],"anonymous":false},{"type":"event","name":"ProofOfLife","inputs":[{"name":"timestamp","type":"uint256","indexed":false,"internalType":"uint256"}],"anonymous":false},{"type":"event","name":"SmartAccountSet","inputs":[{"name":"smartAccount","type":"address","indexed":true,"internalType":"address"}],"anonymous":false},{"type":"event","name":"TokensWithdrawn","inputs":[{"name":"token","type":"address","indexed":true,"internalType":"address"},{"name":"to","type":"address","indexed":true,"internalType":"address"},{"name":"amount","type":"uint256","indexed":false,"internalType":"uint256"}],"anonymous":false},{"type":"event","name":"Unpaused","inputs":[{"name":"account","type":"address","indexed":false,"internalType":"address"}],"anonymous":false}],"bytecode":{"object":"0x608080604052346101065760008054909190336001600160a01b0382167f8be0079c531659141344cd1fd0a4f28419497f9722a3daafe3b4186f6b6457e08580a36001600160a81b0319163360ff60a01b19811691909117835560018055426002556301e13380600355156100b85750600480546001600160a01b03191633908117909155604051917ff4f14065be2883fbe428c293030373870dad7c53a9f95e65265efd066d740a909080a26116d0908161010c8239f35b62461bcd60e51b815260206004820152602360248201527f57696c6c3a20696e76616c696420736d617274206163636f756e74206164647260448201526265737360e81b6064820152608490fd5b600080fdfe6080604052600436101561001257600080fd5b60003560e01c806292d6d7146101515780630f3a9f651461014c578063176648d41461014757806317ca9a7214610142578063274204941461013d5780633f4ba83a1461013857806345245ade146101335780635262f5ed146101065780635c975abb1461012e578063715018a614610129578063753899e9146101245780638456cb591461011f5780638da5cb5b1461011a578063913b722c146101155780639d19b22614610110578063cfcc83981461010b578063db9d42fe14610106578063ea8932d814610101578063efeb5e58146100fc5763f2fde38b146100f757600080fd5b610ce1565b610c80565b610c15565b6107de565b610bd4565b610b85565b610abe565b610a22565b610978565b610911565b610874565b610830565b6106ac565b6105b4565b610578565b6103fe565b6103ae565b6102dd565b610179565b73ffffffffffffffffffffffffffffffffffffffff81160361017457565b600080fd5b346101745760207ffffffffffffffffffffffffffffffffffffffffffffffffffffffffffffffffc3601126101745773ffffffffffffffffffffffffffffffffffffffff6004356101c981610156565b6101d16115ae565b16801561022957807fffffffffffffffffffffffff000000000000000000000000000000000000000060045416176004557ff4f14065be2883fbe428c293030373870dad7c53a9f95e65265efd066d740a90600080a2005b60846040517f08c379a000000000000000000000000000000000000000000000000000000000815260206004820152602360248201527f57696c6c3a20696e76616c696420736d617274206163636f756e74206164647260448201527f65737300000000000000000000000000000000000000000000000000000000006064820152fd5b7ffffffffffffffffffffffffffffffffffffffffffffffffffffffffffffffffc60209101126101745760043590565b34610174576102eb366102ad565b6102f36115ae565b801561032a576020817f6649c90b5089688430ab3e855e2eedb017ca17f6eb1aed93805dcf4996a4da7d92600355604051908152a1005b60846040517f08c379a000000000000000000000000000000000000000000000000000000000815260206004820152602360248201527f57696c6c3a20706572696f64206d75737420626520677265617465722074686160448201527f6e203000000000000000000000000000000000000000000000000000000000006064820152fd5b346101745760007ffffffffffffffffffffffffffffffffffffffffffffffffffffffffffffffffc3601126101745760025460035481018091116103f9576020906040519042118152f35b610e1a565b346101745760207ffffffffffffffffffffffffffffffffffffffffffffffffffffffffffffffffc3601126101745760043567ffffffffffffffff8082116101745736602383011215610174578160040135908111610174576024820191602436918360051b010111610174576104736115ae565b801561051a57610481610e78565b60005b8181106104c257507f3282145792cb00f83624973b19bb99b14ad0ade98b255bfe03e819ca866a822f916104bd60405192839283611009565b0390a1005b806104fe6104f76104de6104d96001958789610ecc565b610ee1565b73ffffffffffffffffffffffffffffffffffffffff1690565b1515610eee565b61051461050f6104d9838688610ecc565b610f79565b01610484565b60646040517f08c379a000000000000000000000000000000000000000000000000000000000815260206004820152601f60248201527f57696c6c3a20656d7074792062656e65666963696172696573206172726179006044820152fd5b346101745760007ffffffffffffffffffffffffffffffffffffffffffffffffffffffffffffffffc360112610174576020600354604051908152f35b34610174576000807ffffffffffffffffffffffffffffffffffffffffffffffffffffffffffffffffc3601126106a9576105ec6115ae565b805460ff8160a01c161561064b577fffffffffffffffffffffff00ffffffffffffffffffffffffffffffffffffffff1681557f5db9ee0a495bf2e6ff9c91a7834c1ba4fdd244a5e8aa4e537bd38aeae4b073aa6020604051338152a180f35b60646040517f08c379a000000000000000000000000000000000000000000000000000000000815260206004820152601460248201527f5061757361626c653a206e6f74207061757365640000000000000000000000006044820152fd5b80fd5b34610174576000807ffffffffffffffffffffffffffffffffffffffffffffffffffffffffffffffffc3601126106a9576001906002600154146107805760026001556106f661162d565b808160058054915b828110610724575b8461071085611066565b6107186110f1565b61072160018055565b80f35b8185523373ffffffffffffffffffffffffffffffffffffffff827f036b6384b5eca791c62761152d0c79bb0604c104a5fb6f4eb0703f3154bb3db00154161461076e5785016106fe565b50505050906107109082913880610706565b60646040517f08c379a000000000000000000000000000000000000000000000000000000000815260206004820152601f60248201527f5265656e7472616e637947756172643a207265656e7472616e742063616c6c006044820152fd5b346101745760007ffffffffffffffffffffffffffffffffffffffffffffffffffffffffffffffffc36011261017457602073ffffffffffffffffffffffffffffffffffffffff60045416604051908152f35b346101745760007ffffffffffffffffffffffffffffffffffffffffffffffffffffffffffffffffc36011261017457602060ff60005460a01c166040519015158152f35b34610174576000807ffffffffffffffffffffffffffffffffffffffffffffffffffffffffffffffffc3601126106a9576108ac6115ae565b8073ffffffffffffffffffffffffffffffffffffffff81547fffffffffffffffffffffffff000000000000000000000000000000000000000081168355167f8be0079c531659141344cd1fd0a4f28419497f9722a3daafe3b4186f6b6457e08280a380f35b346101745760007ffffffffffffffffffffffffffffffffffffffffffffffffffffffffffffffffc360112610174576109486115ae565b426002557f2db17d81b717f55b0558c0f46a200e066ba6a245ad6d177accb209acc0c4cda16020604051428152a1005b34610174576000807ffffffffffffffffffffffffffffffffffffffffffffffffffffffffffffffffc3601126106a9576109b06115ae565b6109b861162d565b740100000000000000000000000000000000000000007fffffffffffffffffffffff00ffffffffffffffffffffffffffffffffffffffff8254161781557f62e78cea01bee320cd4e420270b5ea74000d11b0c9f74754ebdbfc544b05a2586020604051338152a180f35b346101745760007ffffffffffffffffffffffffffffffffffffffffffffffffffffffffffffffffc36011261017457602073ffffffffffffffffffffffffffffffffffffffff60005416604051908152f35b90815180825260208080930193019160005b828110610a94575050505090565b835173ffffffffffffffffffffffffffffffffffffffff1685529381019392810192600101610a86565b346101745760007ffffffffffffffffffffffffffffffffffffffffffffffffffffffffffffffffc36011261017457604051806005549182815260208091019260056000527f036b6384b5eca791c62761152d0c79bb0604c104a5fb6f4eb0703f3154bb3db0916000905b828210610b5857610b5485610b40818903826113a5565b604051918291602083526020830190610a74565b0390f35b835473ffffffffffffffffffffffffffffffffffffffff1686529485019460019384019390910190610b29565b346101745760207ffffffffffffffffffffffffffffffffffffffffffffffffffffffffffffffffc360112610174576020610bca600435610bc581610156565b611511565b6040519015158152f35b346101745760007ffffffffffffffffffffffffffffffffffffffffffffffffffffffffffffffffc360112610174576020610c0d611584565b604051908152f35b346101745760007ffffffffffffffffffffffffffffffffffffffffffffffffffffffffffffffffc360112610174576020600254604051908152f35b7f4e487b7100000000000000000000000000000000000000000000000000000000600052603260045260246000fd5b3461017457610c8e366102ad565b6005548110156101745773ffffffffffffffffffffffffffffffffffffffff60209160056000527f036b6384b5eca791c62761152d0c79bb0604c104a5fb6f4eb0703f3154bb3db0015416604051908152f35b346101745760207ffffffffffffffffffffffffffffffffffffffffffffffffffffffffffffffffc36011261017457600435610d1c81610156565b610d246115ae565b73ffffffffffffffffffffffffffffffffffffffff8091168015610d96576000918254827fffffffffffffffffffffffff00000000000000000000000000000000000000008216178455167f8be0079c531659141344cd1fd0a4f28419497f9722a3daafe3b4186f6b6457e08380a380f35b60846040517f08c379a000000000000000000000000000000000000000000000000000000000815260206004820152602660248201527f4f776e61626c653a206e6577206f776e657220697320746865207a65726f206160448201527f64647265737300000000000000000000000000000000000000000000000000006064820152fd5b7f4e487b7100000000000000000000000000000000000000000000000000000000600052601160045260246000fd5b7f4e487b7100000000000000000000000000000000000000000000000000000000600052604160045260246000fd5b60055460008060055581610e8a575050565b60056000527f036b6384b5eca791c62761152d0c79bb0604c104a5fb6f4eb0703f3154bb3db0918201915b828110610ec157505050565b818155600101610eb5565b9190811015610edc5760051b0190565b610c51565b35610eeb81610156565b90565b15610ef557565b60846040517f08c379a000000000000000000000000000000000000000000000000000000000815260206004820152602160248201527f57696c6c3a20696e76616c69642062656e65666963696172792061646472657360448201527f73000000000000000000000000000000000000000000000000000000000000006064820152fd5b60055468010000000000000000811015611004576001810180600555811015610edc5773ffffffffffffffffffffffffffffffffffffffff9060056000527f036b6384b5eca791c62761152d0c79bb0604c104a5fb6f4eb0703f3154bb3db00191167fffffffffffffffffffffffff0000000000000000000000000000000000000000825416179055565b610e49565b909160406020928260208201602083525201929160005b82811061102e575050505090565b90919293828060019273ffffffffffffffffffffffffffffffffffffffff883561105781610156565b16815201950193929101611020565b1561106d57565b60846040517f08c379a000000000000000000000000000000000000000000000000000000000815260206004820152602160248201527f57696c6c3a2063616c6c6572206973206e6f7420612062656e6566696369617260448201527f79000000000000000000000000000000000000000000000000000000000000006064820152fd5b60025460035481018091116103f95742111561127d5761111460055415156112db565b60008061113660045473ffffffffffffffffffffffffffffffffffffffff1690565b61115773ffffffffffffffffffffffffffffffffffffffff82161515611340565b61115f6113e6565b826040516111c78161119b60208201957fd99fe29500000000000000000000000000000000000000000000000000000000875260248301611482565b037fffffffffffffffffffffffffffffffffffffffffffffffffffffffffffffffe081018352826113a5565b51925af16111d36114a4565b901561120d57507f2d4e926f8cd4b3b36d192f4fd50bb2b01b0b358fb62b974c40da3b61c9759eec6040518061120881611502565b0390a1565b51611271576040517f08c379a000000000000000000000000000000000000000000000000000000000815260206004820152601f60248201527f57696c6c3a206f776e657273686970207472616e73666572206661696c6564006044820152606490fd5b6040513d90816000823efd5b60646040517f08c379a000000000000000000000000000000000000000000000000000000000815260206004820152601b60248201527f57696c6c3a206f776e6572206973207374696c6c2061637469766500000000006044820152fd5b156112e257565b60646040517f08c379a000000000000000000000000000000000000000000000000000000000815260206004820152601a60248201527f57696c6c3a206e6f2062656e65666963696172696573207365740000000000006044820152fd5b1561134757565b60646040517f08c379a000000000000000000000000000000000000000000000000000000000815260206004820152601b60248201527f57696c6c3a20736d617274206163636f756e74206e6f742073657400000000006044820152fd5b90601f7fffffffffffffffffffffffffffffffffffffffffffffffffffffffffffffffe0910116810190811067ffffffffffffffff82111761100457604052565b6040516020810181811067ffffffffffffffff8211176110045760405260008152906000368137565b6005549081815260208091019160056000527f036b6384b5eca791c62761152d0c79bb0604c104a5fb6f4eb0703f3154bb3db0916000905b828210611455575050505090565b835473ffffffffffffffffffffffffffffffffffffffff1685529384019360019384019390910190611447565b610eeb91604082526114966040830161140f565b916020818403910152610a74565b3d156114fd573d9067ffffffffffffffff821161100457604051916114f160207fffffffffffffffffffffffffffffffffffffffffffffffffffffffffffffffe0601f84011601846113a5565b82523d6000602084013e565b606090565b6020610eeb918181520161140f565b6005805491906000805b84811061152c575050505050600090565b82825273ffffffffffffffffffffffffffffffffffffffff80827f036b6384b5eca791c62761152d0c79bb0604c104a5fb6f4eb0703f3154bb3db00154169085161461157a5760010161151b565b5050505050600190565b60025460035481018091116103f957804210156115a8574281039081116103f95790565b50600090565b73ffffffffffffffffffffffffffffffffffffffff6000541633036115cf57565b60646040517f08c379a000000000000000000000000000000000000000000000000000000000815260206004820152602060248201527f4f776e61626c653a2063616c6c6572206973206e6f7420746865206f776e65726044820152fd5b60ff60005460a01c1661163c57565b60646040517f08c379a000000000000000000000000000000000000000000000000000000000815260206004820152601060248201527f5061757361626c653a20706175736564000000000000000000000000000000006044820152fdfea264697066735822122018fd722220532d948be260e672d695ec483d5744e2effe3474ed143d3bf94ad164736f6c63430008160033","linkReferences":{}},"methodIdentifiers":{"alive()":"753899e9","beneficiaries(uint256)":"efeb5e58","claimAccount()":"45245ade","getBeneficiaries()":"913b722c","getSmartAccount()":"5262f5ed","isBeneficiary(address)":"9d19b226","isWillExecutable()":"176648d4","lastActiveTime()":"ea8932d8","owner()":"8da5cb5b","pause()":"8456cb59","paused()":"5c975abb","proofOfLifePeriod()":"27420494","renounceOwnership()":"715018a6","setBeneficiaries(address[])":"17ca9a72","setPeriod(uint256)":"0f3a9f65","setSmartAccount(address)":"0092d6d7","smartAccount()":"db9d42fe","timeUntilWillExecution()":"cfcc8398","transferOwnership(address)":"f2fde38b","unpause()":"3f4ba83a"},"id":33}